{
  "transactions": [
    {
      "hash": "0x8c5eabcfab640c241651717bff0de1a018244d6c71f854bc03b8a0cf298e7b9a",
      "transactionType": "CALL",
      "contractName": "MockUSDC",
      "contractAddress": "0xb94010ade8e47898e2eab0fc2036ff5998a94604",
      "function": "mint(address,uint256)",
      "arguments": [
        "0xEF601A05D21D68384B127585ac886EFFC993894a",
        "100000000"
      ],
      "transaction": {
        "from": "0xef601a05d21d68384b127585ac886effc993894a",
        "to": "0xb94010ade8e47898e2eab0fc2036ff5998a94604",
        "gas": "0xb6b2",
        "value": "0x0",
        "input": "0x40c10f19000000000000000000000000ef601a05d21d68384b127585ac886effc993894a0000000000000000000000000000000000000000000000000000000005f5e100",
        "nonce": "0x70",
        "chainId": "0x14a34"
      },
      "additionalContracts": [],
      "isFixedGasLimit": false
    },
    {
      "hash": "0x08b2dd295b0a5237ff4a96aaf43274e7af3ca33ec863d4645120e25b63977aef",
      "transactionType": "CALL",
      "contractName": "MockUSDC",
      "contractAddress": "0xb94010ade8e47898e2eab0fc2036ff5998a94604",
      "function": "approve(address,uint256)",
      "arguments": [
        "0x3997Ed9d4cbF7d7d76419CC27A487A2C1dE36386",
        "100000000"
      ],
      "transaction": {
        "from": "0xef601a05d21d68384b127585ac886effc993894a",
        "to": "0xb94010ade8e47898e2eab0fc2036ff5998a94604",
        "gas": "0x10657",
        "value": "0x0",
        "input": "0x095ea7b30000000000000000000000003997ed9d4cbf7d7d76419cc27a487a2c1de363860000000000000000000000000000000000000000000000000000000005f5e100",
        "nonce": "0x71",
        "chainId": "0x14a34"
      },
      "additionalContracts": [],
      "isFixedGasLimit": false
    },
    {
      "hash": "0x65dae307371d5e6bcda5ba288c046e0e755bb1dd9fcca91209ec96ab59a642ae",
      "transactionType": "CALL",
      "contractName": "Treasury",
      "contractAddress": "0x3997ed9d4cbf7d7d76419cc27a487a2c1de36386",
      "function": "list((string,uint256,address,bytes32))",
      "arguments": [
        "(https://data-api.binance.vision/api/v3/ticker/price?symbol=ETHUSDC, 100000000, 0xEF601A05D21D68384B127585ac886EFFC993894a, 0xa10f821b7160c9710708884d5314c507d4fd0baeadf39a60a6a0e73629acf8e3)"
      ],
      "transaction": {
        "from": "0xef601a05d21d68384b127585ac886effc993894a",
        "to": "0x3997ed9d4cbf7d7d76419cc27a487a2c1de36386",
        "gas": "0x49e21",
        "value": "0x0",
        "input": "0x9d90ca85000000000000000000000000000000000000000000000000000000000000002000000000000000000000000000000000000000000000000000000000000000800000000000000000000000000000000000000000000000000000000005f5e100000000000000000000000000ef601a05d21d68384b127585ac886effc993894aa10f821b7160c9710708884d5314c507d4fd0baeadf39a60a6a0e73629acf8e3000000000000000000000000000000000000000000000000000000000000004268747470733a2f2f646174612d6170692e62696e616e63652e766973696f6e2f6170692f76332f7469636b65722f70726963653f73796d626f6c3d45544855534443000000000000000000000000000000000000000000000000000000000000",
        "nonce": "0x72",
        "chainId": "0x14a34"
      },
      "additionalContracts": [],
      "isFixedGasLimit": false
    }
  ],
  "receipts": [
    {
      "status": "0x1",
      "cumulativeGasUsed": "0x23b6c01",
      "logs": [
        {
          "address": "0xb94010ade8e47898e2eab0fc2036ff5998a94604",
          "topics": [
            "0xddf252ad1be2c89b69c2b068fc378daa952ba7f163c4a11628f55a4df523b3ef",
            "0x0000000000000000000000000000000000000000000000000000000000000000",
            "0x000000000000000000000000ef601a05d21d68384b127585ac886effc993894a"
          ],
          "data": "0x0000000000000000000000000000000000000000000000000000000005f5e100",
          "blockHash": "0x6d88cb6a36df9590257aad1ac8d9d5e2062fab7afa5ecea1ac73a7abc07714e1",
          "blockNumber": "0x2077660",
          "blockTimestamp": "0x69224ba0",
          "transactionHash": "0x8c5eabcfab640c241651717bff0de1a018244d6c71f854bc03b8a0cf298e7b9a",
          "transactionIndex": "0x1f",
          "logIndex": "0xb7",
          "removed": false
        }
      ],
      "logsBloom": "0x00000000000000000000000000000000000000000000100000000000000000000000000000000000000000000000000000000000000000000000000000000000000000000000000000000018000000000000000000000000000000002000000000000000020000000000000000000800000000000000000000000010000000000001000000000000000000000000000000000000000000000000000000000000000000000000000000000000000000000000000000000000000000000000000000000002000000000000000000000000000000000000000000000000000030000000000000000000000000200000000000000000000000000000000000000000",
      "type": "0x2",
      "transactionHash": "0x8c5eabcfab640c241651717bff0de1a018244d6c71f854bc03b8a0cf298e7b9a",
      "transactionIndex": "0x1f",
      "blockHash": "0x6d88cb6a36df9590257aad1ac8d9d5e2062fab7afa5ecea1ac73a7abc07714e1",
      "blockNumber": "0x2077660",
      "gasUsed": "0x8445",
      "effectiveGasPrice": "0x144041",
      "blobGasUsed": "0x79e0",
      "from": "0xef601a05d21d68384b127585ac886effc993894a",
      "to": "0xb94010ade8e47898e2eab0fc2036ff5998a94604",
      "contractAddress": null,
      "daFootprintGasScalar": "0x138",
      "l1BaseFeeScalar": "0x44d",
      "l1BlobBaseFee": "0x1",
      "l1BlobBaseFeeScalar": "0xa118b",
      "l1Fee": "0x51",
      "l1GasPrice": "0x9",
      "l1GasUsed": "0x640"
    },
    {
      "status": "0x1",
      "cumulativeGasUsed": "0x23c1f62",
      "logs": [
        {
          "address": "0xb94010ade8e47898e2eab0fc2036ff5998a94604",
          "topics": [
            "0x8c5be1e5ebec7d5bd14f71427d1e84f3dd0314c0f7b2291e5b200ac8c7c3b925",
            "0x000000000000000000000000ef601a05d21d68384b127585ac886effc993894a",
            "0x0000000000000000000000003997ed9d4cbf7d7d76419cc27a487a2c1de36386"
          ],
          "data": "0x0000000000000000000000000000000000000000000000000000000005f5e100",
          "blockHash": "0x6d88cb6a36df9590257aad1ac8d9d5e2062fab7afa5ecea1ac73a7abc07714e1",
          "blockNumber": "0x2077660",
          "blockTimestamp": "0x69224ba0",
          "transactionHash": "0x08b2dd295b0a5237ff4a96aaf43274e7af3ca33ec863d4645120e25b63977aef",
          "transactionIndex": "0x20",
          "logIndex": "0xb8",
          "removed": false
        }
      ],
      "logsBloom": "0x00000000000000000000000000000000000000000000100000000000000000000000000000000000000000000000000000000000000000000000000000200000000000000000000000000010000000000000000000000000000000002000000000000800000000000000000000000000800000000000000000000000000000000001000000000000000000000000000000000000000000000000000000000000020000000000000000000000000000000000000000000000000000000000000000000000000100000000000000000000000000000000000000000000000010000010000000000000000000200000000000000000000000000000000000000000",
      "type": "0x2",
      "transactionHash": "0x08b2dd295b0a5237ff4a96aaf43274e7af3ca33ec863d4645120e25b63977aef",
      "transactionIndex": "0x20",
      "blockHash": "0x6d88cb6a36df9590257aad1ac8d9d5e2062fab7afa5ecea1ac73a7abc07714e1",
      "blockNumber": "0x2077660",
      "gasUsed": "0xb361",
      "effectiveGasPrice": "0x144041",
      "blobGasUsed": "0x79e0",
      "from": "0xef601a05d21d68384b127585ac886effc993894a",
      "to": "0xb94010ade8e47898e2eab0fc2036ff5998a94604",
      "contractAddress": null,
      "daFootprintGasScalar": "0x138",
      "l1BaseFeeScalar": "0x44d",
      "l1BlobBaseFee": "0x1",
      "l1BlobBaseFeeScalar": "0xa118b",
      "l1Fee": "0x51",
      "l1GasPrice": "0x9",
      "l1GasUsed": "0x640"
    },
    {
      "status": "0x1",
      "cumulativeGasUsed": "0x23f773a",
      "logs": [
        {
          "address": "0xb94010ade8e47898e2eab0fc2036ff5998a94604",
          "topics": [
            "0xddf252ad1be2c89b69c2b068fc378daa952ba7f163c4a11628f55a4df523b3ef",
            "0x000000000000000000000000ef601a05d21d68384b127585ac886effc993894a",
            "0x0000000000000000000000003997ed9d4cbf7d7d76419cc27a487a2c1de36386"
          ],
          "data": "0x0000000000000000000000000000000000000000000000000000000005f5e100",
          "blockHash": "0x6d88cb6a36df9590257aad1ac8d9d5e2062fab7afa5ecea1ac73a7abc07714e1",
          "blockNumber": "0x2077660",
          "blockTimestamp": "0x69224ba0",
          "transactionHash": "0x65dae307371d5e6bcda5ba288c046e0e755bb1dd9fcca91209ec96ab59a642ae",
          "transactionIndex": "0x21",
          "logIndex": "0xb9",
          "removed": false
        },
        {
          "address": "0x3997ed9d4cbf7d7d76419cc27a487a2c1de36386",
          "topics": [
            "0xe82f9de5acaa8d9b3291f9b8d118b433976f5cbbc63620e25b56181c5ad4ed67"
          ],
          "data": "0x0000000000000000000000000000000000000000000000000000000000000040501cc816f46776a08a5b60590561c6d3e080664691d3960778d8e1d307f2e64700000000000000000000000000000000000000000000000000000000000000800000000000000000000000000000000000000000000000000000000005f5e100000000000000000000000000ef601a05d21d68384b127585ac886effc993894aa10f821b7160c9710708884d5314c507d4fd0baeadf39a60a6a0e73629acf8e3000000000000000000000000000000000000000000000000000000000000004268747470733a2f2f646174612d6170692e62696e616e63652e766973696f6e2f6170692f76332f7469636b65722f70726963653f73796d626f6c3d45544855534443000000000000000000000000000000000000000000000000000000000000",
          "blockHash": "0x6d88cb6a36df9590257aad1ac8d9d5e2062fab7afa5ecea1ac73a7abc07714e1",
          "blockNumber": "0x2077660",
          "blockTimestamp": "0x69224ba0",
          "transactionHash": "0x65dae307371d5e6bcda5ba288c046e0e755bb1dd9fcca91209ec96ab59a642ae",
          "transactionIndex": "0x21",
          "logIndex": "0xba",
          "removed": false
        }
      ],
      "logsBloom": "0x00000000000000000000000000000001000000000000100000000000000000000000000000000000000000000000000000000000000000000000000000000000000000000000002000000018000000000000000000000000000000002000000000000800000000000080000000000000800000000000000000000010000000000001000000000000000000000000000000000000000000000000000000000000000000000000000000000000010000000000000000000000002000000000000000000002000100000000000000000000000000000000000000000000000010000000000000000000000000200000000000000000000000000000000000004000",
      "type": "0x2",
      "transactionHash": "0x65dae307371d5e6bcda5ba288c046e0e755bb1dd9fcca91209ec96ab59a642ae",
      "transactionIndex": "0x21",
      "blockHash": "0x6d88cb6a36df9590257aad1ac8d9d5e2062fab7afa5ecea1ac73a7abc07714e1",
      "blockNumber": "0x2077660",
      "gasUsed": "0x357d8",
      "effectiveGasPrice": "0x144041",
      "blobGasUsed": "0xeb38",
      "from": "0xef601a05d21d68384b127585ac886effc993894a",
      "to": "0x3997ed9d4cbf7d7d76419cc27a487a2c1de36386",
      "contractAddress": null,
      "daFootprintGasScalar": "0x138",
      "l1BaseFeeScalar": "0x44d",
      "l1BlobBaseFee": "0x1",
      "l1BlobBaseFeeScalar": "0xa118b",
      "l1Fee": "0x51",
      "l1GasPrice": "0x9",
      "l1GasUsed": "0xc14"
    }
  ],
  "libraries": [],
  "pending": [],
  "returns": {},
  "timestamp": 1763855264,
  "chain": 84532,
  "commit": "dde5bee"
}