{
  "transactions": [
    {
      "hash": "0xb2ad60a5ed60375eeaf4e26bf954d996f322758ec7ec01b9f2739ef9cf00b0f9",
      "transactionType": "CALL",
      "contractName": "MockUSDC",
      "contractAddress": "0x05c9a810c03cabc6006efbbdef7d733193d00a20",
      "function": "mint(address,uint256)",
      "arguments": [
        "0xEF601A05D21D68384B127585ac886EFFC993894a",
        "110000000"
      ],
      "transaction": {
        "from": "0xef601a05d21d68384b127585ac886effc993894a",
        "to": "0x05c9a810c03cabc6006efbbdef7d733193d00a20",
        "gas": "0x184e4",
        "value": "0x0",
        "input": "0x40c10f19000000000000000000000000ef601a05d21d68384b127585ac886effc993894a00000000000000000000000000000000000000000000000000000000068e7780",
        "nonce": "0x91",
        "chainId": "0x14a34"
      },
      "additionalContracts": [],
      "isFixedGasLimit": false
    },
    {
      "hash": "0xb1cb81a50e890926082e6d44a2b638fc6babb48f48a1e860815803b0ad8edd41",
      "transactionType": "CALL",
      "contractName": "MockUSDC",
      "contractAddress": "0x05c9a810c03cabc6006efbbdef7d733193d00a20",
      "function": "approve(address,uint256)",
      "arguments": [
        "0x4653fB1c5142cEF8612519CF6E58396CD7888c74",
        "100000000"
      ],
      "transaction": {
        "from": "0xef601a05d21d68384b127585ac886effc993894a",
        "to": "0x05c9a810c03cabc6006efbbdef7d733193d00a20",
        "gas": "0x10657",
        "value": "0x0",
        "input": "0x095ea7b30000000000000000000000004653fb1c5142cef8612519cf6e58396cd7888c740000000000000000000000000000000000000000000000000000000005f5e100",
        "nonce": "0x92",
        "chainId": "0x14a34"
      },
      "additionalContracts": [],
      "isFixedGasLimit": false
    },
    {
      "hash": "0x04b9f5c1a659bba3ab28d44c537db1401db56dde4dfd056d9b7abc916980faca",
      "transactionType": "CALL",
      "contractName": "Treasury",
      "contractAddress": "0x4653fb1c5142cef8612519cf6e58396cd7888c74",
      "function": "list((string,string,uint256,address,bytes32))",
      "arguments": [
        "(https://test-1111111111111111111111111111111111711111111111125595.myshopify.com/admin/api/2024-01/orders/16447065227633.json, 15334575571313, 100000000, 0xEF601A05D21D68384B127585ac886EFFC993894a, 0xa10f821b7160c9710708884d5314c507d4fd0baeadf39a60a6a0e73629acf8e3)"
      ],
      "transaction": {
        "from": "0xef601a05d21d68384b127585ac886effc993894a",
        "to": "0x4653fb1c5142cef8612519cf6e58396cd7888c74",
        "gas": "0x6b5f5",
        "value": "0x0",
        "input": "0x9d0d71ca000000000000000000000000000000000000000000000000000000000000002000000000000000000000000000000000000000000000000000000000000000a000000000000000000000000000000000000000000000000000000000000001400000000000000000000000000000000000000000000000000000000005f5e100000000000000000000000000ef601a05d21d68384b127585ac886effc993894aa10f821b7160c9710708884d5314c507d4fd0baeadf39a60a6a0e73629acf8e3000000000000000000000000000000000000000000000000000000000000007c68747470733a2f2f746573742d313131313131313131313131313131313131313131313131313131313131313131313731313131313131313131313132353539352e6d7973686f706966792e636f6d2f61646d696e2f6170692f323032342d30312f6f72646572732f31363434373036353232373633332e6a736f6e00000000000000000000000000000000000000000000000000000000000000000000000e3135333334353735353731333133000000000000000000000000000000000000",
        "nonce": "0x93",
        "chainId": "0x14a34"
      },
      "additionalContracts": [],
      "isFixedGasLimit": false
    }
  ],
  "receipts": [
    {
      "status": "0x1",
      "cumulativeGasUsed": "0x1036ec3",
      "logs": [
        {
          "address": "0x05c9a810c03cabc6006efbbdef7d733193d00a20",
          "topics": [
            "0xddf252ad1be2c89b69c2b068fc378daa952ba7f163c4a11628f55a4df523b3ef",
            "0x0000000000000000000000000000000000000000000000000000000000000000",
            "0x000000000000000000000000ef601a05d21d68384b127585ac886effc993894a"
          ],
          "data": "0x00000000000000000000000000000000000000000000000000000000068e7780",
          "blockHash": "0x5aa916f1268c794a78c32153e59df63637f6726b4904b0a77648110dcb3cf0be",
          "blockNumber": "0x2078653",
          "blockTimestamp": "0x69226b86",
          "transactionHash": "0xb2ad60a5ed60375eeaf4e26bf954d996f322758ec7ec01b9f2739ef9cf00b0f9",
          "transactionIndex": "0x1e",
          "logIndex": "0x1c4",
          "removed": false
        }
      ],
      "logsBloom": "0x00000000000000000000000000000000000000000000100000000000000000000000000000000000000000000000000000000000000000000000000000000000020000000000000000000008000000000000000000000000000000002000000000000000020000000000000000000800000000000000000000000010000000000001000000000000000000000000000000000000000000000000000000000000000000000000000000000000000000000000000000000000000000000000000000000002000000000400000000000000000000000000000000000000001020000000000000000000000000000000000000000000000000000000000000000000",
      "type": "0x2",
      "transactionHash": "0xb2ad60a5ed60375eeaf4e26bf954d996f322758ec7ec01b9f2739ef9cf00b0f9",
      "transactionIndex": "0x1e",
      "blockHash": "0x5aa916f1268c794a78c32153e59df63637f6726b4904b0a77648110dcb3cf0be",
      "blockNumber": "0x2078653",
      "gasUsed": "0x109e9",
      "effectiveGasPrice": "0x4eb325",
      "blobGasUsed": "0x79e0",
      "from": "0xef601a05d21d68384b127585ac886effc993894a",
      "to": "0x05c9a810c03cabc6006efbbdef7d733193d00a20",
      "contractAddress": null,
      "daFootprintGasScalar": "0x138",
      "l1BaseFeeScalar": "0x44d",
      "l1BlobBaseFee": "0x1",
      "l1BlobBaseFeeScalar": "0xa118b",
      "l1Fee": "0x55",
      "l1GasPrice": "0xb",
      "l1GasUsed": "0x640"
    },
    {
      "status": "0x1",
      "cumulativeGasUsed": "0x1042224",
      "logs": [
        {
          "address": "0x05c9a810c03cabc6006efbbdef7d733193d00a20",
          "topics": [
            "0x8c5be1e5ebec7d5bd14f71427d1e84f3dd0314c0f7b2291e5b200ac8c7c3b925",
            "0x000000000000000000000000ef601a05d21d68384b127585ac886effc993894a",
            "0x0000000000000000000000004653fb1c5142cef8612519cf6e58396cd7888c74"
          ],
          "data": "0x0000000000000000000000000000000000000000000000000000000005f5e100",
          "blockHash": "0x5aa916f1268c794a78c32153e59df63637f6726b4904b0a77648110dcb3cf0be",
          "blockNumber": "0x2078653",
          "blockTimestamp": "0x69226b86",
          "transactionHash": "0xb1cb81a50e890926082e6d44a2b638fc6babb48f48a1e860815803b0ad8edd41",
          "transactionIndex": "0x1f",
          "logIndex": "0x1c5",
          "removed": false
        }
      ],
      "logsBloom": "0x00000000000000000000000000000000000000000000100000000000000000000000000000000000000000000000000000000000000000000000000000200000020000000000000000000000000000000000000000000000000000002000000000000000000000000000000000000000000000000000000000000000000000000401000000000000000000000000000000000000000000000000000000000000020000000000000000000000000000000000000000000000000000000000000000000000000000000400000040000000000000000000000000000000001000000010000000000000000000000000000000000000000000004000000000000000",
      "type": "0x2",
      "transactionHash": "0xb1cb81a50e890926082e6d44a2b638fc6babb48f48a1e860815803b0ad8edd41",
      "transactionIndex": "0x1f",
      "blockHash": "0x5aa916f1268c794a78c32153e59df63637f6726b4904b0a77648110dcb3cf0be",
      "blockNumber": "0x2078653",
      "gasUsed": "0xb361",
      "effectiveGasPrice": "0x4eb325",
      "blobGasUsed": "0x79e0",
      "from": "0xef601a05d21d68384b127585ac886effc993894a",
      "to": "0x05c9a810c03cabc6006efbbdef7d733193d00a20",
      "contractAddress": null,
      "daFootprintGasScalar": "0x138",
      "l1BaseFeeScalar": "0x44d",
      "l1BlobBaseFee": "0x1",
      "l1BlobBaseFeeScalar": "0xa118b",
      "l1Fee": "0x55",
      "l1GasPrice": "0xb",
      "l1GasUsed": "0x640"
    },
    {
      "status": "0x1",
      "cumulativeGasUsed": "0x10a1c38",
      "logs": [
        {
          "address": "0x05c9a810c03cabc6006efbbdef7d733193d00a20",
          "topics": [
            "0xddf252ad1be2c89b69c2b068fc378daa952ba7f163c4a11628f55a4df523b3ef",
            "0x000000000000000000000000ef601a05d21d68384b127585ac886effc993894a",
            "0x0000000000000000000000004653fb1c5142cef8612519cf6e58396cd7888c74"
          ],
          "data": "0x0000000000000000000000000000000000000000000000000000000005f5e100",
          "blockHash": "0x5aa916f1268c794a78c32153e59df63637f6726b4904b0a77648110dcb3cf0be",
          "blockNumber": "0x2078653",
          "blockTimestamp": "0x69226b86",
          "transactionHash": "0x04b9f5c1a659bba3ab28d44c537db1401db56dde4dfd056d9b7abc916980faca",
          "transactionIndex": "0x22",
          "logIndex": "0x1c8",
          "removed": false
        },
        {
          "address": "0x4653fb1c5142cef8612519cf6e58396cd7888c74",
          "topics": [
            "0xe1e8e5f42b49a5c22e59b67a128a192afb3ff14a69c0770380c5cbb8a64b9eb6"
          ],
          "data": "0x000000000000000000000000000000000000000000000000000000000000004007413ffd7c6d4acca3d30aaa2752cec3a1f3d1c33f4ce5aa57d3e5fcb7a7e35700000000000000000000000000000000000000000000000000000000000000a000000000000000000000000000000000000000000000000000000000000001400000000000000000000000000000000000000000000000000000000005f5e100000000000000000000000000ef601a05d21d68384b127585ac886effc993894aa10f821b7160c9710708884d5314c507d4fd0baeadf39a60a6a0e73629acf8e3000000000000000000000000000000000000000000000000000000000000007c68747470733a2f2f746573742d313131313131313131313131313131313131313131313131313131313131313131313731313131313131313131313132353539352e6d7973686f706966792e636f6d2f61646d696e2f6170692f323032342d30312f6f72646572732f31363434373036353232373633332e6a736f6e00000000000000000000000000000000000000000000000000000000000000000000000e3135333334353735353731333133000000000000000000000000000000000000",
          "blockHash": "0x5aa916f1268c794a78c32153e59df63637f6726b4904b0a77648110dcb3cf0be",
          "blockNumber": "0x2078653",
          "blockTimestamp": "0x69226b86",
          "transactionHash": "0x04b9f5c1a659bba3ab28d44c537db1401db56dde4dfd056d9b7abc916980faca",
          "transactionIndex": "0x22",
          "logIndex": "0x1c9",
          "removed": false
        }
      ],
      "logsBloom": "0x00000000000000000000000000000000000000000000100000000000000000000000000000000000000000000000000000000000000000000002000000000000020000000000000000000008000000000000000000000000000000002000000000000000000000000000000000000000000000000000000000000010000002000401000800000000000000000000000000000000000000000000000000000000000000000000000000000000000000000001000000000000000000000000000000080002000000000400000040000000000000000000000000000000041000000000000000000000000000000000000000000000000000004000000000000000",
      "type": "0x2",
      "transactionHash": "0x04b9f5c1a659bba3ab28d44c537db1401db56dde4dfd056d9b7abc916980faca",
      "transactionIndex": "0x22",
      "blockHash": "0x5aa916f1268c794a78c32153e59df63637f6726b4904b0a77648110dcb3cf0be",
      "blockNumber": "0x2078653",
      "gasUsed": "0x4dbc6",
      "effectiveGasPrice": "0x4eb325",
      "blobGasUsed": "0x11fa0",
      "from": "0xef601a05d21d68384b127585ac886effc993894a",
      "to": "0x4653fb1c5142cef8612519cf6e58396cd7888c74",
      "contractAddress": null,
      "daFootprintGasScalar": "0x138",
      "l1BaseFeeScalar": "0x44d",
      "l1BlobBaseFee": "0x1",
      "l1BlobBaseFeeScalar": "0xa118b",
      "l1Fee": "0x55",
      "l1GasPrice": "0xb",
      "l1GasUsed": "0xecc"
    }
  ],
  "libraries": [],
  "pending": [],
  "returns": {},
  "timestamp": 1763863429,
  "chain": 84532,
  "commit": "3e706f1"
}