{
  "transactions": [
    {
      "hash": "0x65af4992a786a9099558e4ab45e750c81efdda18cae90dc99cce11baf1d36bb7",
      "transactionType": "CALL",
      "contractName": "MockUSDC",
      "contractAddress": "0xb94010ade8e47898e2eab0fc2036ff5998a94604",
      "function": "mint(address,uint256)",
      "arguments": [
        "0xEF601A05D21D68384B127585ac886EFFC993894a",
        "110000000"
      ],
      "transaction": {
        "from": "0xef601a05d21d68384b127585ac886effc993894a",
        "to": "0xb94010ade8e47898e2eab0fc2036ff5998a94604",
        "gas": "0x184e4",
        "value": "0x0",
        "input": "0x40c10f19000000000000000000000000ef601a05d21d68384b127585ac886effc993894a00000000000000000000000000000000000000000000000000000000068e7780",
        "nonce": "0x6a",
        "chainId": "0x14a34"
      },
      "additionalContracts": [],
      "isFixedGasLimit": false
    },
    {
      "hash": "0x7984dc0242268c0f2fe7ed534ed47c10f9bc789ce40347eba1c9bb4dd461fbb6",
      "transactionType": "CALL",
      "contractName": "MockUSDC",
      "contractAddress": "0xb94010ade8e47898e2eab0fc2036ff5998a94604",
      "function": "approve(address,uint256)",
      "arguments": [
        "0x3997Ed9d4cbF7d7d76419CC27A487A2C1dE36386",
        "100000000"
      ],
      "transaction": {
        "from": "0xef601a05d21d68384b127585ac886effc993894a",
        "to": "0xb94010ade8e47898e2eab0fc2036ff5998a94604",
        "gas": "0x10657",
        "value": "0x0",
        "input": "0x095ea7b30000000000000000000000003997ed9d4cbf7d7d76419cc27a487a2c1de363860000000000000000000000000000000000000000000000000000000005f5e100",
        "nonce": "0x6b",
        "chainId": "0x14a34"
      },
      "additionalContracts": [],
      "isFixedGasLimit": false
    },
    {
      "hash": "0xc0cc90acbb41c5d77108416021a5d636ee03530b9478bf0daaff13d74814c84b",
      "transactionType": "CALL",
      "contractName": "Treasury",
      "contractAddress": "0x3997ed9d4cbf7d7d76419cc27a487a2c1de36386",
      "function": "list((string,uint256,address,bytes32))",
      "arguments": [
        "(https://www.amazon.com/gp/your-account/order-details/?orderID=111-1234567-8901234, 100000000, 0xEF601A05D21D68384B127585ac886EFFC993894a, 0xa10f821b7160c9710708884d5314c507d4fd0baeadf39a60a6a0e73629acf8e3)"
      ],
      "transaction": {
        "from": "0xef601a05d21d68384b127585ac886effc993894a",
        "to": "0x3997ed9d4cbf7d7d76419cc27a487a2c1de36386",
        "gas": "0x5b3e5",
        "value": "0x0",
        "input": "0x9d90ca85000000000000000000000000000000000000000000000000000000000000002000000000000000000000000000000000000000000000000000000000000000800000000000000000000000000000000000000000000000000000000005f5e100000000000000000000000000ef601a05d21d68384b127585ac886effc993894aa10f821b7160c9710708884d5314c507d4fd0baeadf39a60a6a0e73629acf8e3000000000000000000000000000000000000000000000000000000000000005168747470733a2f2f7777772e616d617a6f6e2e636f6d2f67702f796f75722d6163636f756e742f6f726465722d64657461696c732f3f6f7264657249443d3131312d313233343536372d38393031323334000000000000000000000000000000",
        "nonce": "0x6c",
        "chainId": "0x14a34"
      },
      "additionalContracts": [],
      "isFixedGasLimit": false
    }
  ],
  "receipts": [
    {
      "status": "0x1",
      "cumulativeGasUsed": "0x26e1b3d",
      "logs": [
        {
          "address": "0xb94010ade8e47898e2eab0fc2036ff5998a94604",
          "topics": [
            "0xddf252ad1be2c89b69c2b068fc378daa952ba7f163c4a11628f55a4df523b3ef",
            "0x0000000000000000000000000000000000000000000000000000000000000000",
            "0x000000000000000000000000ef601a05d21d68384b127585ac886effc993894a"
          ],
          "data": "0x00000000000000000000000000000000000000000000000000000000068e7780",
          "blockHash": "0xcf457ecdc1199c4a3ab10d6172da55c006895556f072dbcace372b3139cc0f7f",
          "blockNumber": "0x2077516",
          "blockTimestamp": "0x6922490c",
          "transactionHash": "0x65af4992a786a9099558e4ab45e750c81efdda18cae90dc99cce11baf1d36bb7",
          "transactionIndex": "0x22",
          "logIndex": "0x57",
          "removed": false
        }
      ],
      "logsBloom": "0x00000000000000000000000000000000000000000000100000000000000000000000000000000000000000000000000000000000000000000000000000000000000000000000000000000018000000000000000000000000000000002000000000000000020000000000000000000800000000000000000000000010000000000001000000000000000000000000000000000000000000000000000000000000000000000000000000000000000000000000000000000000000000000000000000000002000000000000000000000000000000000000000000000000000030000000000000000000000000200000000000000000000000000000000000000000",
      "type": "0x2",
      "transactionHash": "0x65af4992a786a9099558e4ab45e750c81efdda18cae90dc99cce11baf1d36bb7",
      "transactionIndex": "0x22",
      "blockHash": "0xcf457ecdc1199c4a3ab10d6172da55c006895556f072dbcace372b3139cc0f7f",
      "blockNumber": "0x2077516",
      "gasUsed": "0x109e9",
      "effectiveGasPrice": "0x146592",
      "blobGasUsed": "0x79e0",
      "from": "0xef601a05d21d68384b127585ac886effc993894a",
      "to": "0xb94010ade8e47898e2eab0fc2036ff5998a94604",
      "contractAddress": null,
      "daFootprintGasScalar": "0x138",
      "l1BaseFeeScalar": "0x44d",
      "l1BlobBaseFee": "0x1",
      "l1BlobBaseFeeScalar": "0xa118b",
      "l1Fee": "0x6c",
      "l1GasPrice": "0x9",
      "l1GasUsed": "0x640"
    },
    {
      "status": "0x1",
      "cumulativeGasUsed": "0x26ece9e",
      "logs": [
        {
          "address": "0xb94010ade8e47898e2eab0fc2036ff5998a94604",
          "topics": [
            "0x8c5be1e5ebec7d5bd14f71427d1e84f3dd0314c0f7b2291e5b200ac8c7c3b925",
            "0x000000000000000000000000ef601a05d21d68384b127585ac886effc993894a",
            "0x0000000000000000000000003997ed9d4cbf7d7d76419cc27a487a2c1de36386"
          ],
          "data": "0x0000000000000000000000000000000000000000000000000000000005f5e100",
          "blockHash": "0xcf457ecdc1199c4a3ab10d6172da55c006895556f072dbcace372b3139cc0f7f",
          "blockNumber": "0x2077516",
          "blockTimestamp": "0x6922490c",
          "transactionHash": "0x7984dc0242268c0f2fe7ed534ed47c10f9bc789ce40347eba1c9bb4dd461fbb6",
          "transactionIndex": "0x23",
          "logIndex": "0x58",
          "removed": false
        }
      ],
      "logsBloom": "0x00000000000000000000000000000000000000000000100000000000000000000000000000000000000000000000000000000000000000000000000000200000000000000000000000000010000000000000000000000000000000002000000000000800000000000000000000000000800000000000000000000000000000000001000000000000000000000000000000000000000000000000000000000000020000000000000000000000000000000000000000000000000000000000000000000000000100000000000000000000000000000000000000000000000010000010000000000000000000200000000000000000000000000000000000000000",
      "type": "0x2",
      "transactionHash": "0x7984dc0242268c0f2fe7ed534ed47c10f9bc789ce40347eba1c9bb4dd461fbb6",
      "transactionIndex": "0x23",
      "blockHash": "0xcf457ecdc1199c4a3ab10d6172da55c006895556f072dbcace372b3139cc0f7f",
      "blockNumber": "0x2077516",
      "gasUsed": "0xb361",
      "effectiveGasPrice": "0x146592",
      "blobGasUsed": "0x79e0",
      "from": "0xef601a05d21d68384b127585ac886effc993894a",
      "to": "0xb94010ade8e47898e2eab0fc2036ff5998a94604",
      "contractAddress": null,
      "daFootprintGasScalar": "0x138",
      "l1BaseFeeScalar": "0x44d",
      "l1BlobBaseFee": "0x1",
      "l1BlobBaseFeeScalar": "0xa118b",
      "l1Fee": "0x6c",
      "l1GasPrice": "0x9",
      "l1GasUsed": "0x640"
    },
    {
      "status": "0x1",
      "cumulativeGasUsed": "0x272ef8e",
      "logs": [
        {
          "address": "0xb94010ade8e47898e2eab0fc2036ff5998a94604",
          "topics": [
            "0xddf252ad1be2c89b69c2b068fc378daa952ba7f163c4a11628f55a4df523b3ef",
            "0x000000000000000000000000ef601a05d21d68384b127585ac886effc993894a",
            "0x0000000000000000000000003997ed9d4cbf7d7d76419cc27a487a2c1de36386"
          ],
          "data": "0x0000000000000000000000000000000000000000000000000000000005f5e100",
          "blockHash": "0xcf457ecdc1199c4a3ab10d6172da55c006895556f072dbcace372b3139cc0f7f",
          "blockNumber": "0x2077516",
          "blockTimestamp": "0x6922490c",
          "transactionHash": "0xc0cc90acbb41c5d77108416021a5d636ee03530b9478bf0daaff13d74814c84b",
          "transactionIndex": "0x24",
          "logIndex": "0x59",
          "removed": false
        },
        {
          "address": "0x3997ed9d4cbf7d7d76419cc27a487a2c1de36386",
          "topics": [
            "0xe82f9de5acaa8d9b3291f9b8d118b433976f5cbbc63620e25b56181c5ad4ed67"
          ],
          "data": "0x0000000000000000000000000000000000000000000000000000000000000040b180335d88242f714c6388d8ea5408d19157cf9da8676e75364a44c497672e3100000000000000000000000000000000000000000000000000000000000000800000000000000000000000000000000000000000000000000000000005f5e100000000000000000000000000ef601a05d21d68384b127585ac886effc993894aa10f821b7160c9710708884d5314c507d4fd0baeadf39a60a6a0e73629acf8e3000000000000000000000000000000000000000000000000000000000000005168747470733a2f2f7777772e616d617a6f6e2e636f6d2f67702f796f75722d6163636f756e742f6f726465722d64657461696c732f3f6f7264657249443d3131312d313233343536372d38393031323334000000000000000000000000000000",
          "blockHash": "0xcf457ecdc1199c4a3ab10d6172da55c006895556f072dbcace372b3139cc0f7f",
          "blockNumber": "0x2077516",
          "blockTimestamp": "0x6922490c",
          "transactionHash": "0xc0cc90acbb41c5d77108416021a5d636ee03530b9478bf0daaff13d74814c84b",
          "transactionIndex": "0x24",
          "logIndex": "0x5a",
          "removed": false
        }
      ],
      "logsBloom": "0x00000000000000000000000000000001000000000000100000000000000000000000000000000000000000000000000000000000000000000000000000000000000000000000002000000018000000000000000000000000000000002000000000000800000000000080000000000000800000000000000000000010000000000001000000000000000000000000000000000000000000000000000000000000000000000000000000000000010000000000000000000000002000000000000000000002000100000000000000000000000000000000000000000000000010000000000000000000000000200000000000000000000000000000000000004000",
      "type": "0x2",
      "transactionHash": "0xc0cc90acbb41c5d77108416021a5d636ee03530b9478bf0daaff13d74814c84b",
      "transactionIndex": "0x24",
      "blockHash": "0xcf457ecdc1199c4a3ab10d6172da55c006895556f072dbcace372b3139cc0f7f",
      "blockNumber": "0x2077516",
      "gasUsed": "0x420f0",
      "effectiveGasPrice": "0x146592",
      "blobGasUsed": "0xf288",
      "from": "0xef601a05d21d68384b127585ac886effc993894a",
      "to": "0x3997ed9d4cbf7d7d76419cc27a487a2c1de36386",
      "contractAddress": null,
      "daFootprintGasScalar": "0x138",
      "l1BaseFeeScalar": "0x44d",
      "l1BlobBaseFee": "0x1",
      "l1BlobBaseFeeScalar": "0xa118b",
      "l1Fee": "0x6c",
      "l1GasPrice": "0x9",
      "l1GasUsed": "0xc7f"
    }
  ],
  "libraries": [],
  "pending": [],
  "returns": {},
  "timestamp": 1763854603,
  "chain": 84532,
  "commit": "dde5bee"
}