{
  "transactions": [
    {
      "hash": "0x7381e53669c3c475858ec34e2be4a239f2a7734fc76ed2978e45e9743c74bc19",
      "transactionType": "CALL",
      "contractName": "MockUSDC",
      "contractAddress": "0x69d7fdee7b3315c2b8c4a576f71a6596b581efd5",
      "function": "mint(address,uint256)",
      "arguments": [
        "0xEF601A05D21D68384B127585ac886EFFC993894a",
        "110000000"
      ],
      "transaction": {
        "from": "0xef601a05d21d68384b127585ac886effc993894a",
        "to": "0x69d7fdee7b3315c2b8c4a576f71a6596b581efd5",
        "gas": "0x184e4",
        "value": "0x0",
        "input": "0x40c10f19000000000000000000000000ef601a05d21d68384b127585ac886effc993894a00000000000000000000000000000000000000000000000000000000068e7780",
        "nonce": "0x9d",
        "chainId": "0x14a34"
      },
      "additionalContracts": [],
      "isFixedGasLimit": false
    },
    {
      "hash": "0xb8ad97bd924ffbcbf99d08a0caa36f37eb9cf7bdebf82cd379d3fe7db103a2f5",
      "transactionType": "CALL",
      "contractName": "MockUSDC",
      "contractAddress": "0x69d7fdee7b3315c2b8c4a576f71a6596b581efd5",
      "function": "approve(address,uint256)",
      "arguments": [
        "0xBCEF1c9AA181B2Bad058E5D49293E3A4B96F51a6",
        "100000000"
      ],
      "transaction": {
        "from": "0xef601a05d21d68384b127585ac886effc993894a",
        "to": "0x69d7fdee7b3315c2b8c4a576f71a6596b581efd5",
        "gas": "0x10657",
        "value": "0x0",
        "input": "0x095ea7b3000000000000000000000000bcef1c9aa181b2bad058e5d49293e3a4b96f51a60000000000000000000000000000000000000000000000000000000005f5e100",
        "nonce": "0x9e",
        "chainId": "0x14a34"
      },
      "additionalContracts": [],
      "isFixedGasLimit": false
    },
    {
      "hash": "0xd454570b67a4759edf7c0a1962dff469c00da153fe057a09263d9c8ef209c381",
      "transactionType": "CALL",
      "contractName": null,
      "contractAddress": "0xbcef1c9aa181b2bad058e5d49293e3a4b96f51a6",
      "function": "list((string,string,uint256,address,bytes32))",
      "arguments": [
        "(https://test-1111111111111111111111111111111111711111111111125595.myshopify.com/admin/api/2024-01/orders/16447065227633.json, 15334575571313, 100000000, 0xEF601A05D21D68384B127585ac886EFFC993894a, 0xa10f821b7160c9710708884d5314c507d4fd0baeadf39a60a6a0e73629acf8e3)"
      ],
      "transaction": {
        "from": "0xef601a05d21d68384b127585ac886effc993894a",
        "to": "0xbcef1c9aa181b2bad058e5d49293e3a4b96f51a6",
        "gas": "0x6b5f5",
        "value": "0x0",
        "input": "0x9d0d71ca000000000000000000000000000000000000000000000000000000000000002000000000000000000000000000000000000000000000000000000000000000a000000000000000000000000000000000000000000000000000000000000001400000000000000000000000000000000000000000000000000000000005f5e100000000000000000000000000ef601a05d21d68384b127585ac886effc993894aa10f821b7160c9710708884d5314c507d4fd0baeadf39a60a6a0e73629acf8e3000000000000000000000000000000000000000000000000000000000000007c68747470733a2f2f746573742d313131313131313131313131313131313131313131313131313131313131313131313731313131313131313131313132353539352e6d7973686f706966792e636f6d2f61646d696e2f6170692f323032342d30312f6f72646572732f31363434373036353232373633332e6a736f6e00000000000000000000000000000000000000000000000000000000000000000000000e3135333334353735353731333133000000000000000000000000000000000000",
        "nonce": "0x9f",
        "chainId": "0x14a34"
      },
      "additionalContracts": [],
      "isFixedGasLimit": false
    }
  ],
  "receipts": [
    {
      "status": "0x1",
      "cumulativeGasUsed": "0x52d402",
      "logs": [
        {
          "address": "0x69d7fdee7b3315c2b8c4a576f71a6596b581efd5",
          "topics": [
            "0xddf252ad1be2c89b69c2b068fc378daa952ba7f163c4a11628f55a4df523b3ef",
            "0x0000000000000000000000000000000000000000000000000000000000000000",
            "0x000000000000000000000000ef601a05d21d68384b127585ac886effc993894a"
          ],
          "data": "0x00000000000000000000000000000000000000000000000000000000068e7780",
          "blockHash": "0x494bd8adf3133157c7fd19c1a94e9e8a41b56f371c24e0f0851195aebb46fcd9",
          "blockNumber": "0x20789e4",
          "blockTimestamp": "0x692272a8",
          "transactionHash": "0x7381e53669c3c475858ec34e2be4a239f2a7734fc76ed2978e45e9743c74bc19",
          "transactionIndex": "0xa",
          "logIndex": "0x67",
          "removed": false
        }
      ],
      "logsBloom": "0x00000000000000000000001000000000000000000000100000000000000000000000000000000000000000000000000000000000000000000000000000002000000000000000000000000008000000000000000000000000000000002000000000000000020000000000000000000800000000000000000000000010000000000001000000000000000000000000000000000000000000000000000000000000000000000000000000000000000000000000000000000000000000000000000000000002000000000000000000000000000000000000000000000000000020000000000000000008000000000000000000000000000000000000000000000000",
      "type": "0x2",
      "transactionHash": "0x7381e53669c3c475858ec34e2be4a239f2a7734fc76ed2978e45e9743c74bc19",
      "transactionIndex": "0xa",
      "blockHash": "0x494bd8adf3133157c7fd19c1a94e9e8a41b56f371c24e0f0851195aebb46fcd9",
      "blockNumber": "0x20789e4",
      "gasUsed": "0x109e9",
      "effectiveGasPrice": "0x1639e5c",
      "blobGasUsed": "0x79e0",
      "from": "0xef601a05d21d68384b127585ac886effc993894a",
      "to": "0x69d7fdee7b3315c2b8c4a576f71a6596b581efd5",
      "contractAddress": null,
      "daFootprintGasScalar": "0x138",
      "l1BaseFeeScalar": "0x44d",
      "l1BlobBaseFee": "0x1",
      "l1BlobBaseFeeScalar": "0xa118b",
      "l1Fee": "0x53",
      "l1GasPrice": "0xa",
      "l1GasUsed": "0x640"
    },
    {
      "status": "0x1",
      "cumulativeGasUsed": "0x538763",
      "logs": [
        {
          "address": "0x69d7fdee7b3315c2b8c4a576f71a6596b581efd5",
          "topics": [
            "0x8c5be1e5ebec7d5bd14f71427d1e84f3dd0314c0f7b2291e5b200ac8c7c3b925",
            "0x000000000000000000000000ef601a05d21d68384b127585ac886effc993894a",
            "0x000000000000000000000000bcef1c9aa181b2bad058e5d49293e3a4b96f51a6"
          ],
          "data": "0x0000000000000000000000000000000000000000000000000000000005f5e100",
          "blockHash": "0x494bd8adf3133157c7fd19c1a94e9e8a41b56f371c24e0f0851195aebb46fcd9",
          "blockNumber": "0x20789e4",
          "blockTimestamp": "0x692272a8",
          "transactionHash": "0xb8ad97bd924ffbcbf99d08a0caa36f37eb9cf7bdebf82cd379d3fe7db103a2f5",
          "transactionIndex": "0xb",
          "logIndex": "0x68",
          "removed": false
        }
      ],
      "logsBloom": "0x00000000000000000000001000000000000000000000100001000000000000000000000000000000000000000000000000000000000000000000000000202000000000000000000000000000000000000000000000000000000000002000000000000000000000000000000000000000000000000000000000000000040000000201000000000000000000000000000000000000000000000000000000000000020000000000000000000000000000000000000000000000000000000000000000000000000000000000000000000000000000000000000000000000000000000010000000000008000000000000000000000000000000000000000000000000",
      "type": "0x2",
      "transactionHash": "0xb8ad97bd924ffbcbf99d08a0caa36f37eb9cf7bdebf82cd379d3fe7db103a2f5",
      "transactionIndex": "0xb",
      "blockHash": "0x494bd8adf3133157c7fd19c1a94e9e8a41b56f371c24e0f0851195aebb46fcd9",
      "blockNumber": "0x20789e4",
      "gasUsed": "0xb361",
      "effectiveGasPrice": "0x1639e5c",
      "blobGasUsed": "0x79e0",
      "from": "0xef601a05d21d68384b127585ac886effc993894a",
      "to": "0x69d7fdee7b3315c2b8c4a576f71a6596b581efd5",
      "contractAddress": null,
      "daFootprintGasScalar": "0x138",
      "l1BaseFeeScalar": "0x44d",
      "l1BlobBaseFee": "0x1",
      "l1BlobBaseFeeScalar": "0xa118b",
      "l1Fee": "0x53",
      "l1GasPrice": "0xa",
      "l1GasUsed": "0x640"
    },
    {
      "status": "0x1",
      "cumulativeGasUsed": "0x586329",
      "logs": [
        {
          "address": "0x69d7fdee7b3315c2b8c4a576f71a6596b581efd5",
          "topics": [
            "0xddf252ad1be2c89b69c2b068fc378daa952ba7f163c4a11628f55a4df523b3ef",
            "0x000000000000000000000000ef601a05d21d68384b127585ac886effc993894a",
            "0x000000000000000000000000bcef1c9aa181b2bad058e5d49293e3a4b96f51a6"
          ],
          "data": "0x0000000000000000000000000000000000000000000000000000000005f5e100",
          "blockHash": "0x494bd8adf3133157c7fd19c1a94e9e8a41b56f371c24e0f0851195aebb46fcd9",
          "blockNumber": "0x20789e4",
          "blockTimestamp": "0x692272a8",
          "transactionHash": "0xd454570b67a4759edf7c0a1962dff469c00da153fe057a09263d9c8ef209c381",
          "transactionIndex": "0xc",
          "logIndex": "0x69",
          "removed": false
        },
        {
          "address": "0xbcef1c9aa181b2bad058e5d49293e3a4b96f51a6",
          "topics": [
            "0xe1e8e5f42b49a5c22e59b67a128a192afb3ff14a69c0770380c5cbb8a64b9eb6"
          ],
          "data": "0x000000000000000000000000000000000000000000000000000000000000004007413ffd7c6d4acca3d30aaa2752cec3a1f3d1c33f4ce5aa57d3e5fcb7a7e35700000000000000000000000000000000000000000000000000000000000000a000000000000000000000000000000000000000000000000000000000000001400000000000000000000000000000000000000000000000000000000005f5e100000000000000000000000000ef601a05d21d68384b127585ac886effc993894aa10f821b7160c9710708884d5314c507d4fd0baeadf39a60a6a0e73629acf8e3000000000000000000000000000000000000000000000000000000000000007c68747470733a2f2f746573742d313131313131313131313131313131313131313131313131313131313131313131313731313131313131313131313132353539352e6d7973686f706966792e636f6d2f61646d696e2f6170692f323032342d30312f6f72646572732f31363434373036353232373633332e6a736f6e00000000000000000000000000000000000000000000000000000000000000000000000e3135333334353735353731333133000000000000000000000000000000000000",
          "blockHash": "0x494bd8adf3133157c7fd19c1a94e9e8a41b56f371c24e0f0851195aebb46fcd9",
          "blockNumber": "0x20789e4",
          "blockTimestamp": "0x692272a8",
          "transactionHash": "0xd454570b67a4759edf7c0a1962dff469c00da153fe057a09263d9c8ef209c381",
          "transactionIndex": "0xc",
          "logIndex": "0x6a",
          "removed": false
        }
      ],
      "logsBloom": "0x00000000000000000000001000000000000000000000180001000000000000000000000000000000000000000000000000000200000000000002000000002000000000000000000000000008000000000000000000000000000000002000000000000000000000000000000000000000000000000000000000000010040000000201000800000000000000000000000000000000000000000000000000000000000000000000000000000000000000000001000000000200000000000000000000000002000000000000000000000000000000000000000000000000000000000000000000000008000000000000000000000000000000000000000000000000",
      "type": "0x2",
      "transactionHash": "0xd454570b67a4759edf7c0a1962dff469c00da153fe057a09263d9c8ef209c381",
      "transactionIndex": "0xc",
      "blockHash": "0x494bd8adf3133157c7fd19c1a94e9e8a41b56f371c24e0f0851195aebb46fcd9",
      "blockNumber": "0x20789e4",
      "gasUsed": "0x4dbc6",
      "effectiveGasPrice": "0x1639e5c",
      "blobGasUsed": "0x120d8",
      "from": "0xef601a05d21d68384b127585ac886effc993894a",
      "to": "0xbcef1c9aa181b2bad058e5d49293e3a4b96f51a6",
      "contractAddress": null,
      "daFootprintGasScalar": "0x138",
      "l1BaseFeeScalar": "0x44d",
      "l1BlobBaseFee": "0x1",
      "l1BlobBaseFeeScalar": "0xa118b",
      "l1Fee": "0x53",
      "l1GasPrice": "0xa",
      "l1GasUsed": "0xeda"
    }
  ],
  "libraries": [],
  "pending": [],
  "returns": {},
  "timestamp": 1763865254,
  "chain": 84532,
  "commit": "3e706f1"
}