{
  "transactions": [
    {
      "hash": "0x3f7902784bc4599c6f87083bea188c38f810ed413782fbaa137d5e9aa99b6273",
      "transactionType": "CALL",
      "contractName": "MockUSDC",
      "contractAddress": "0x506f9c737e6d2300c9c0992259cfe6c5dbb365cd",
      "function": "mint(address,uint256)",
      "arguments": [
        "0xEF601A05D21D68384B127585ac886EFFC993894a",
        "100000000"
      ],
      "transaction": {
        "from": "0xef601a05d21d68384b127585ac886effc993894a",
        "to": "0x506f9c737e6d2300c9c0992259cfe6c5dbb365cd",
        "gas": "0xb6b2",
        "value": "0x0",
        "input": "0x40c10f19000000000000000000000000ef601a05d21d68384b127585ac886effc993894a0000000000000000000000000000000000000000000000000000000005f5e100",
        "nonce": "0xac",
        "chainId": "0x14a34"
      },
      "additionalContracts": [],
      "isFixedGasLimit": false
    },
    {
      "hash": "0xa900754dd359b9e15dd413b72e41edf196913a90a27dd762508f2a3392808b5b",
      "transactionType": "CALL",
      "contractName": "MockUSDC",
      "contractAddress": "0x506f9c737e6d2300c9c0992259cfe6c5dbb365cd",
      "function": "approve(address,uint256)",
      "arguments": [
        "0x007922ce1B486beF9361Ed806B4fb8ddBdAe3228",
        "100000000"
      ],
      "transaction": {
        "from": "0xef601a05d21d68384b127585ac886effc993894a",
        "to": "0x506f9c737e6d2300c9c0992259cfe6c5dbb365cd",
        "gas": "0xf7b3",
        "value": "0x0",
        "input": "0x095ea7b3000000000000000000000000007922ce1b486bef9361ed806b4fb8ddbdae32280000000000000000000000000000000000000000000000000000000005f5e100",
        "nonce": "0xad",
        "chainId": "0x14a34"
      },
      "additionalContracts": [],
      "isFixedGasLimit": false
    },
    {
      "hash": "0xadf98753794ac9ccab16ce0a93e598955b721a681aedf718563effa3f529507b",
      "transactionType": "CALL",
      "contractName": "Treasury",
      "contractAddress": "0x007922ce1b486bef9361ed806b4fb8ddbdae3228",
      "function": "list((string,string,uint256,address,bytes32))",
      "arguments": [
        "(https://test-1111111111111111111111111111111111711111111111125595.myshopify.com/admin/api/2024-01/orders/16447065227633.json, 15334575571313, 100000000, 0xEF601A05D21D68384B127585ac886EFFC993894a, 0xa10f821b7160c9710708884d5314c507d4fd0baeadf39a60a6a0e73629acf8e3)"
      ],
      "transaction": {
        "from": "0xef601a05d21d68384b127585ac886effc993894a",
        "to": "0x007922ce1b486bef9361ed806b4fb8ddbdae3228",
        "gas": "0x1dae9",
        "value": "0x0",
        "input": "0x9d0d71ca000000000000000000000000000000000000000000000000000000000000002000000000000000000000000000000000000000000000000000000000000000a000000000000000000000000000000000000000000000000000000000000001400000000000000000000000000000000000000000000000000000000005f5e100000000000000000000000000ef601a05d21d68384b127585ac886effc993894aa10f821b7160c9710708884d5314c507d4fd0baeadf39a60a6a0e73629acf8e3000000000000000000000000000000000000000000000000000000000000007c68747470733a2f2f746573742d313131313131313131313131313131313131313131313131313131313131313131313731313131313131313131313132353539352e6d7973686f706966792e636f6d2f61646d696e2f6170692f323032342d30312f6f72646572732f31363434373036353232373633332e6a736f6e00000000000000000000000000000000000000000000000000000000000000000000000e3135333334353735353731333133000000000000000000000000000000000000",
        "nonce": "0xae",
        "chainId": "0x14a34"
      },
      "additionalContracts": [],
      "isFixedGasLimit": false
    }
  ],
  "receipts": [
    {
      "status": "0x1",
      "cumulativeGasUsed": "0xd4ed8a",
      "logs": [
        {
          "address": "0x506f9c737e6d2300c9c0992259cfe6c5dbb365cd",
          "topics": [
            "0xddf252ad1be2c89b69c2b068fc378daa952ba7f163c4a11628f55a4df523b3ef",
            "0x0000000000000000000000000000000000000000000000000000000000000000",
            "0x000000000000000000000000ef601a05d21d68384b127585ac886effc993894a"
          ],
          "data": "0x0000000000000000000000000000000000000000000000000000000005f5e100",
          "blockHash": "0xea8b90943cfd14a4a596ff1c8fa7668c3f91002803663d278719f2bda6bae00f",
          "blockNumber": "0x2079250",
          "blockTimestamp": "0x69228380",
          "transactionHash": "0x3f7902784bc4599c6f87083bea188c38f810ed413782fbaa137d5e9aa99b6273",
          "transactionIndex": "0x45",
          "logIndex": "0xed",
          "removed": false
        }
      ],
      "logsBloom": "0x00000000000000000000000000000000000000000000100000000002000000000000000000000000000000000000000000020000000000000000000000000000000000000000000000000008000000000000000000000000000000002000000000000000020000000000000000000800000000000000000004000010000000000001000000000000000000000000000000000000000000000000000000000000000000000000000000000000000000000000000000000000000000000000000000000002000000000000000000000000000000000000000000000000000020000000000000000000000000000000000000000000000000000000000000000000",
      "type": "0x2",
      "transactionHash": "0x3f7902784bc4599c6f87083bea188c38f810ed413782fbaa137d5e9aa99b6273",
      "transactionIndex": "0x45",
      "blockHash": "0xea8b90943cfd14a4a596ff1c8fa7668c3f91002803663d278719f2bda6bae00f",
      "blockNumber": "0x2079250",
      "gasUsed": "0x8445",
      "effectiveGasPrice": "0x4c1cdbb",
      "blobGasUsed": "0x79e0",
      "from": "0xef601a05d21d68384b127585ac886effc993894a",
      "to": "0x506f9c737e6d2300c9c0992259cfe6c5dbb365cd",
      "contractAddress": null,
      "daFootprintGasScalar": "0x138",
      "l1BaseFeeScalar": "0x44d",
      "l1BlobBaseFee": "0x1",
      "l1BlobBaseFeeScalar": "0xa118b",
      "l1Fee": "0x57",
      "l1GasPrice": "0xc",
      "l1GasUsed": "0x640"
    },
    {
      "status": "0x1",
      "cumulativeGasUsed": "0xd5a0df",
      "logs": [
        {
          "address": "0x506f9c737e6d2300c9c0992259cfe6c5dbb365cd",
          "topics": [
            "0x8c5be1e5ebec7d5bd14f71427d1e84f3dd0314c0f7b2291e5b200ac8c7c3b925",
            "0x000000000000000000000000ef601a05d21d68384b127585ac886effc993894a",
            "0x000000000000000000000000007922ce1b486bef9361ed806b4fb8ddbdae3228"
          ],
          "data": "0x0000000000000000000000000000000000000000000000000000000005f5e100",
          "blockHash": "0xea8b90943cfd14a4a596ff1c8fa7668c3f91002803663d278719f2bda6bae00f",
          "blockNumber": "0x2079250",
          "blockTimestamp": "0x69228380",
          "transactionHash": "0xa900754dd359b9e15dd413b72e41edf196913a90a27dd762508f2a3392808b5b",
          "transactionIndex": "0x46",
          "logIndex": "0xee",
          "removed": false
        }
      ],
      "logsBloom": "0x00000000000000000000000000000000000000000000100000000002000000000000000000000000000000000000000000020000000000000000000000200000000000000000000000000000000000000000800000004000000000002000000000000000000000000000000000000000000000000000000004000000000000000001000000000000000000000000000000000000000000000000000000000000020000000000000000000000000000000000000000000000000000000000000000000000000000000000000000000000000000000000000000000000000000000010000000000000000000000000000000000000800000000000000000000000",
      "type": "0x2",
      "transactionHash": "0xa900754dd359b9e15dd413b72e41edf196913a90a27dd762508f2a3392808b5b",
      "transactionIndex": "0x46",
      "blockHash": "0xea8b90943cfd14a4a596ff1c8fa7668c3f91002803663d278719f2bda6bae00f",
      "blockNumber": "0x2079250",
      "gasUsed": "0xb355",
      "effectiveGasPrice": "0x4c1cdbb",
      "blobGasUsed": "0x79e0",
      "from": "0xef601a05d21d68384b127585ac886effc993894a",
      "to": "0x506f9c737e6d2300c9c0992259cfe6c5dbb365cd",
      "contractAddress": null,
      "daFootprintGasScalar": "0x138",
      "l1BaseFeeScalar": "0x44d",
      "l1BlobBaseFee": "0x1",
      "l1BlobBaseFeeScalar": "0xa118b",
      "l1Fee": "0x57",
      "l1GasPrice": "0xc",
      "l1GasUsed": "0x640"
    },
    {
      "status": "0x1",
      "cumulativeGasUsed": "0xd6f8b3",
      "logs": [
        {
          "address": "0x506f9c737e6d2300c9c0992259cfe6c5dbb365cd",
          "topics": [
            "0xddf252ad1be2c89b69c2b068fc378daa952ba7f163c4a11628f55a4df523b3ef",
            "0x000000000000000000000000ef601a05d21d68384b127585ac886effc993894a",
            "0x000000000000000000000000007922ce1b486bef9361ed806b4fb8ddbdae3228"
          ],
          "data": "0x0000000000000000000000000000000000000000000000000000000005f5e100",
          "blockHash": "0xea8b90943cfd14a4a596ff1c8fa7668c3f91002803663d278719f2bda6bae00f",
          "blockNumber": "0x2079250",
          "blockTimestamp": "0x69228380",
          "transactionHash": "0xadf98753794ac9ccab16ce0a93e598955b721a681aedf718563effa3f529507b",
          "transactionIndex": "0x47",
          "logIndex": "0xef",
          "removed": false
        },
        {
          "address": "0x007922ce1b486bef9361ed806b4fb8ddbdae3228",
          "topics": [
            "0xe1e8e5f42b49a5c22e59b67a128a192afb3ff14a69c0770380c5cbb8a64b9eb6"
          ],
          "data": "0x000000000000000000000000000000000000000000000000000000000000004007413ffd7c6d4acca3d30aaa2752cec3a1f3d1c33f4ce5aa57d3e5fcb7a7e35700000000000000000000000000000000000000000000000000000000000000a000000000000000000000000000000000000000000000000000000000000001400000000000000000000000000000000000000000000000000000000005f5e100000000000000000000000000ef601a05d21d68384b127585ac886effc993894aa10f821b7160c9710708884d5314c507d4fd0baeadf39a60a6a0e73629acf8e3000000000000000000000000000000000000000000000000000000000000007c68747470733a2f2f746573742d313131313131313131313131313131313131313131313131313131313131313131313731313131313131313131313132353539352e6d7973686f706966792e636f6d2f61646d696e2f6170692f323032342d30312f6f72646572732f31363434373036353232373633332e6a736f6e00000000000000000000000000000000000000000000000000000000000000000000000e3135333334353735353731333133000000000000000000000000000000000000",
          "blockHash": "0xea8b90943cfd14a4a596ff1c8fa7668c3f91002803663d278719f2bda6bae00f",
          "blockNumber": "0x2079250",
          "blockTimestamp": "0x69228380",
          "transactionHash": "0xadf98753794ac9ccab16ce0a93e598955b721a681aedf718563effa3f529507b",
          "transactionIndex": "0x47",
          "logIndex": "0xf0",
          "removed": false
        }
      ],
      "logsBloom": "0x00000000000000000000000000000000000000000000100000000002000000000000000000000000000000000000000000020000000000000002000000000000000000000000000000000008000000000000800000004000000000002000000000000000000000000000000000000010000000000000000004000010000080000081000800000000000000000000000000000000000000000000000000000000000000000000000000000000000000000001000000000000000000000000000000000002000000000000000000000000000000000000000000000000000000000000000000000000000000000000000000000000800000000000000000000000",
      "type": "0x2",
      "transactionHash": "0xadf98753794ac9ccab16ce0a93e598955b721a681aedf718563effa3f529507b",
      "transactionIndex": "0x47",
      "blockHash": "0xea8b90943cfd14a4a596ff1c8fa7668c3f91002803663d278719f2bda6bae00f",
      "blockNumber": "0x2079250",
      "gasUsed": "0x157d4",
      "effectiveGasPrice": "0x4c1cdbb",
      "blobGasUsed": "0x120d8",
      "from": "0xef601a05d21d68384b127585ac886effc993894a",
      "to": "0x007922ce1b486bef9361ed806b4fb8ddbdae3228",
      "contractAddress": null,
      "daFootprintGasScalar": "0x138",
      "l1BaseFeeScalar": "0x44d",
      "l1BlobBaseFee": "0x1",
      "l1BlobBaseFeeScalar": "0xa118b",
      "l1Fee": "0x57",
      "l1GasPrice": "0xc",
      "l1GasUsed": "0xeda"
    }
  ],
  "libraries": [],
  "pending": [],
  "returns": {},
  "timestamp": 1763869567,
  "chain": 84532,
  "commit": "3e706f1"
}