{
  "transactions": [
    {
      "hash": "0x6299a2122ec970a7c538a020740fa0ec406e6f1efcfd8ded754dd54376839cb6",
      "transactionType": "CALL",
      "contractName": "MockUSDC",
      "contractAddress": "0xf5b1c4ee9009aac0df8636c281cd7f580a0c446a",
      "function": "mint(address,uint256)",
      "arguments": [
        "0xEF601A05D21D68384B127585ac886EFFC993894a",
        "100000000"
      ],
      "transaction": {
        "from": "0xef601a05d21d68384b127585ac886effc993894a",
        "to": "0xf5b1c4ee9009aac0df8636c281cd7f580a0c446a",
        "gas": "0xb6b2",
        "value": "0x0",
        "input": "0x40c10f19000000000000000000000000ef601a05d21d68384b127585ac886effc993894a0000000000000000000000000000000000000000000000000000000005f5e100",
        "nonce": "0x5e",
        "chainId": "0x14a34"
      },
      "additionalContracts": [],
      "isFixedGasLimit": false
    },
    {
      "hash": "0x6e391aa913c1b86a1cd4b34fcd932699f399796403bcdeb7fedb8d6e2926180a",
      "transactionType": "CALL",
      "contractName": "MockUSDC",
      "contractAddress": "0xf5b1c4ee9009aac0df8636c281cd7f580a0c446a",
      "function": "approve(address,uint256)",
      "arguments": [
        "0x45663169546dc59D5f8Dbe229139B18A100Bd613",
        "100000000"
      ],
      "transaction": {
        "from": "0xef601a05d21d68384b127585ac886effc993894a",
        "to": "0xf5b1c4ee9009aac0df8636c281cd7f580a0c446a",
        "gas": "0x10657",
        "value": "0x0",
        "input": "0x095ea7b300000000000000000000000045663169546dc59d5f8dbe229139b18a100bd6130000000000000000000000000000000000000000000000000000000005f5e100",
        "nonce": "0x5f",
        "chainId": "0x14a34"
      },
      "additionalContracts": [],
      "isFixedGasLimit": false
    },
    {
      "hash": "0x7b0b37e449d854175c4105e4fa90bf139243db785be38a69328be98916821734",
      "transactionType": "CALL",
      "contractName": "Treasury",
      "contractAddress": "0x45663169546dc59d5f8dbe229139b18a100bd613",
      "function": "list((string,uint256,address,bytes32))",
      "arguments": [
        "(https://www.amazon.com/gp/your-account/order-details/?orderID=111-1234567-8901234, 100000000, 0xEF601A05D21D68384B127585ac886EFFC993894a, 0xa10f821b7160c9710708884d5314c507d4fd0baeadf39a60a6a0e73629acf8e3)"
      ],
      "transaction": {
        "from": "0xef601a05d21d68384b127585ac886effc993894a",
        "to": "0x45663169546dc59d5f8dbe229139b18a100bd613",
        "gas": "0x19ba5",
        "value": "0x0",
        "input": "0x9d90ca85000000000000000000000000000000000000000000000000000000000000002000000000000000000000000000000000000000000000000000000000000000800000000000000000000000000000000000000000000000000000000005f5e100000000000000000000000000ef601a05d21d68384b127585ac886effc993894aa10f821b7160c9710708884d5314c507d4fd0baeadf39a60a6a0e73629acf8e3000000000000000000000000000000000000000000000000000000000000005168747470733a2f2f7777772e616d617a6f6e2e636f6d2f67702f796f75722d6163636f756e742f6f726465722d64657461696c732f3f6f7264657249443d3131312d313233343536372d38393031323334000000000000000000000000000000",
        "nonce": "0x60",
        "chainId": "0x14a34"
      },
      "additionalContracts": [],
      "isFixedGasLimit": false
    }
  ],
  "receipts": [
    {
      "status": "0x1",
      "cumulativeGasUsed": "0x4bb4a2",
      "logs": [
        {
          "address": "0xf5b1c4ee9009aac0df8636c281cd7f580a0c446a",
          "topics": [
            "0xddf252ad1be2c89b69c2b068fc378daa952ba7f163c4a11628f55a4df523b3ef",
            "0x0000000000000000000000000000000000000000000000000000000000000000",
            "0x000000000000000000000000ef601a05d21d68384b127585ac886effc993894a"
          ],
          "data": "0x0000000000000000000000000000000000000000000000000000000005f5e100",
          "blockHash": "0x20fcf2f3ef0aa39e8a126ec5534dd0f6bf43bd99c9d2d25fa2a9e42f3a122ebe",
          "blockNumber": "0x2077304",
          "blockTimestamp": "0x692244e8",
          "transactionHash": "0x6299a2122ec970a7c538a020740fa0ec406e6f1efcfd8ded754dd54376839cb6",
          "transactionIndex": "0x12",
          "logIndex": "0x14",
          "removed": false
        }
      ],
      "logsBloom": "0x00000000000000000000000000000000000000000000100000000000000000000000000000000000080000000020000000000000000000000000000000000000000000000000000000000008000000000000000000000000000000002000000000000000020000000000000000000800000000000000000000000010000000000001000000000000000000000000000000002000000000000000000000000000000000000000000000000000000000000000000000000000000000000000000000000002000000000000000000000000000000000000000000000000000020000000000000000000000000000000000000000000000000000000000000000000",
      "type": "0x2",
      "transactionHash": "0x6299a2122ec970a7c538a020740fa0ec406e6f1efcfd8ded754dd54376839cb6",
      "transactionIndex": "0x12",
      "blockHash": "0x20fcf2f3ef0aa39e8a126ec5534dd0f6bf43bd99c9d2d25fa2a9e42f3a122ebe",
      "blockNumber": "0x2077304",
      "gasUsed": "0x8445",
      "effectiveGasPrice": "0x124f80",
      "blobGasUsed": "0x79e0",
      "from": "0xef601a05d21d68384b127585ac886effc993894a",
      "to": "0xf5b1c4ee9009aac0df8636c281cd7f580a0c446a",
      "contractAddress": null,
      "daFootprintGasScalar": "0x138",
      "l1BaseFeeScalar": "0x44d",
      "l1BlobBaseFee": "0x1",
      "l1BlobBaseFeeScalar": "0xa118b",
      "l1Fee": "0x53",
      "l1GasPrice": "0xa",
      "l1GasUsed": "0x640"
    },
    {
      "status": "0x1",
      "cumulativeGasUsed": "0x4c6803",
      "logs": [
        {
          "address": "0xf5b1c4ee9009aac0df8636c281cd7f580a0c446a",
          "topics": [
            "0x8c5be1e5ebec7d5bd14f71427d1e84f3dd0314c0f7b2291e5b200ac8c7c3b925",
            "0x000000000000000000000000ef601a05d21d68384b127585ac886effc993894a",
            "0x00000000000000000000000045663169546dc59d5f8dbe229139b18a100bd613"
          ],
          "data": "0x0000000000000000000000000000000000000000000000000000000005f5e100",
          "blockHash": "0x20fcf2f3ef0aa39e8a126ec5534dd0f6bf43bd99c9d2d25fa2a9e42f3a122ebe",
          "blockNumber": "0x2077304",
          "blockTimestamp": "0x692244e8",
          "transactionHash": "0x6e391aa913c1b86a1cd4b34fcd932699f399796403bcdeb7fedb8d6e2926180a",
          "transactionIndex": "0x13",
          "logIndex": "0x15",
          "removed": false
        }
      ],
      "logsBloom": "0x00000000000000000000400000000000000000000000100000000000000000000000000000000000080000000020000000000000000000000000000000200000000000000000000000000000000000000000000000000000000000002000000000000000000000000000000020000000000000000000000000000000000000000001000000000000000000000000000000002000000000000000000000000000020000000000000000000000000000000000000000004000000000000000000000000000000000000000000000000000000000000000000000000000000000000010000000000000000000000000000000000000000000000000000000000000",
      "type": "0x2",
      "transactionHash": "0x6e391aa913c1b86a1cd4b34fcd932699f399796403bcdeb7fedb8d6e2926180a",
      "transactionIndex": "0x13",
      "blockHash": "0x20fcf2f3ef0aa39e8a126ec5534dd0f6bf43bd99c9d2d25fa2a9e42f3a122ebe",
      "blockNumber": "0x2077304",
      "gasUsed": "0xb361",
      "effectiveGasPrice": "0x124f80",
      "blobGasUsed": "0x79e0",
      "from": "0xef601a05d21d68384b127585ac886effc993894a",
      "to": "0xf5b1c4ee9009aac0df8636c281cd7f580a0c446a",
      "contractAddress": null,
      "daFootprintGasScalar": "0x138",
      "l1BaseFeeScalar": "0x44d",
      "l1BlobBaseFee": "0x1",
      "l1BlobBaseFeeScalar": "0xa118b",
      "l1Fee": "0x53",
      "l1GasPrice": "0xa",
      "l1GasUsed": "0x640"
    },
    {
      "status": "0x1",
      "cumulativeGasUsed": "0x4d920a",
      "logs": [
        {
          "address": "0xf5b1c4ee9009aac0df8636c281cd7f580a0c446a",
          "topics": [
            "0xddf252ad1be2c89b69c2b068fc378daa952ba7f163c4a11628f55a4df523b3ef",
            "0x000000000000000000000000ef601a05d21d68384b127585ac886effc993894a",
            "0x00000000000000000000000045663169546dc59d5f8dbe229139b18a100bd613"
          ],
          "data": "0x0000000000000000000000000000000000000000000000000000000005f5e100",
          "blockHash": "0x20fcf2f3ef0aa39e8a126ec5534dd0f6bf43bd99c9d2d25fa2a9e42f3a122ebe",
          "blockNumber": "0x2077304",
          "blockTimestamp": "0x692244e8",
          "transactionHash": "0x7b0b37e449d854175c4105e4fa90bf139243db785be38a69328be98916821734",
          "transactionIndex": "0x14",
          "logIndex": "0x16",
          "removed": false
        }
      ],
      "logsBloom": "0x00000000000000000000400000000000000000000000100000000000000000000000000000000000080000000020000000000000000000000000000000000000000000000000000000000008000000000000000000000000000000002000000000000000000000000000000020000000000000000000000000000010000000000001000000000000000000000000000000002000000000000000000000000000000000000000000000000000000000000000000000004000000000000000000000000002000000000000000000000000000000000000000000000000000000000000000000000000000000000000000000000000000000000000000000000000",
      "type": "0x2",
      "transactionHash": "0x7b0b37e449d854175c4105e4fa90bf139243db785be38a69328be98916821734",
      "transactionIndex": "0x14",
      "blockHash": "0x20fcf2f3ef0aa39e8a126ec5534dd0f6bf43bd99c9d2d25fa2a9e42f3a122ebe",
      "blockNumber": "0x2077304",
      "gasUsed": "0x12a07",
      "effectiveGasPrice": "0x124f80",
      "blobGasUsed": "0xf288",
      "from": "0xef601a05d21d68384b127585ac886effc993894a",
      "to": "0x45663169546dc59d5f8dbe229139b18a100bd613",
      "contractAddress": null,
      "daFootprintGasScalar": "0x138",
      "l1BaseFeeScalar": "0x44d",
      "l1BlobBaseFee": "0x1",
      "l1BlobBaseFeeScalar": "0xa118b",
      "l1Fee": "0x53",
      "l1GasPrice": "0xa",
      "l1GasUsed": "0xc7f"
    }
  ],
  "libraries": [],
  "pending": [],
  "returns": {},
  "timestamp": 1763853543,
  "chain": 84532,
  "commit": "dde5bee"
}