{
  "transactions": [
    {
      "hash": "0x2edf4c6001813abc0c6b757cb73a39a94e51663c316f31d07baf6743a6ea5628",
      "transactionType": "CALL",
      "contractName": "MockUSDC",
      "contractAddress": "0xb94010ade8e47898e2eab0fc2036ff5998a94604",
      "function": "mint(address,uint256)",
      "arguments": [
        "0xEF601A05D21D68384B127585ac886EFFC993894a",
        "100000000"
      ],
      "transaction": {
        "from": "0xef601a05d21d68384b127585ac886effc993894a",
        "to": "0xb94010ade8e47898e2eab0fc2036ff5998a94604",
        "gas": "0xb6b2",
        "value": "0x0",
        "input": "0x40c10f19000000000000000000000000ef601a05d21d68384b127585ac886effc993894a0000000000000000000000000000000000000000000000000000000005f5e100",
        "nonce": "0x6d",
        "chainId": "0x14a34"
      },
      "additionalContracts": [],
      "isFixedGasLimit": false
    },
    {
      "hash": "0x5480777bab3b7383de362907d0bb9bfd25b7d18240dd6a1c4bdd05f7df3ca0e0",
      "transactionType": "CALL",
      "contractName": "MockUSDC",
      "contractAddress": "0xb94010ade8e47898e2eab0fc2036ff5998a94604",
      "function": "approve(address,uint256)",
      "arguments": [
        "0x3997Ed9d4cbF7d7d76419CC27A487A2C1dE36386",
        "100000000"
      ],
      "transaction": {
        "from": "0xef601a05d21d68384b127585ac886effc993894a",
        "to": "0xb94010ade8e47898e2eab0fc2036ff5998a94604",
        "gas": "0x10657",
        "value": "0x0",
        "input": "0x095ea7b30000000000000000000000003997ed9d4cbf7d7d76419cc27a487a2c1de363860000000000000000000000000000000000000000000000000000000005f5e100",
        "nonce": "0x6e",
        "chainId": "0x14a34"
      },
      "additionalContracts": [],
      "isFixedGasLimit": false
    },
    {
      "hash": "0x1d5b2dc8d7074ebbbf623102e4594b5baac3b17c17dfb902c9c61c04b1dee808",
      "transactionType": "CALL",
      "contractName": "Treasury",
      "contractAddress": "0x3997ed9d4cbf7d7d76419cc27a487a2c1de36386",
      "function": "list((string,uint256,address,bytes32))",
      "arguments": [
        "(https://www.amazon.com/gp/your-account/order-details/?orderID=111-1234567-8901234, 100000000, 0xEF601A05D21D68384B127585ac886EFFC993894a, 0xa10f821b7160c9710708884d5314c507d4fd0baeadf39a60a6a0e73629acf8e3)"
      ],
      "transaction": {
        "from": "0xef601a05d21d68384b127585ac886effc993894a",
        "to": "0x3997ed9d4cbf7d7d76419cc27a487a2c1de36386",
        "gas": "0x1b05d",
        "value": "0x0",
        "input": "0x9d90ca85000000000000000000000000000000000000000000000000000000000000002000000000000000000000000000000000000000000000000000000000000000800000000000000000000000000000000000000000000000000000000005f5e100000000000000000000000000ef601a05d21d68384b127585ac886effc993894aa10f821b7160c9710708884d5314c507d4fd0baeadf39a60a6a0e73629acf8e3000000000000000000000000000000000000000000000000000000000000005168747470733a2f2f7777772e616d617a6f6e2e636f6d2f67702f796f75722d6163636f756e742f6f726465722d64657461696c732f3f6f7264657249443d3131312d313233343536372d38393031323334000000000000000000000000000000",
        "nonce": "0x6f",
        "chainId": "0x14a34"
      },
      "additionalContracts": [],
      "isFixedGasLimit": false
    }
  ],
  "receipts": [
    {
      "status": "0x1",
      "cumulativeGasUsed": "0x17f482",
      "logs": [
        {
          "address": "0xb94010ade8e47898e2eab0fc2036ff5998a94604",
          "topics": [
            "0xddf252ad1be2c89b69c2b068fc378daa952ba7f163c4a11628f55a4df523b3ef",
            "0x0000000000000000000000000000000000000000000000000000000000000000",
            "0x000000000000000000000000ef601a05d21d68384b127585ac886effc993894a"
          ],
          "data": "0x0000000000000000000000000000000000000000000000000000000005f5e100",
          "blockHash": "0x433ef21b7dbb15a90a4ebacacc8dc8163070b62d6de8f74d3349ee642c04acc0",
          "blockNumber": "0x20775dd",
          "blockTimestamp": "0x69224a9a",
          "transactionHash": "0x2edf4c6001813abc0c6b757cb73a39a94e51663c316f31d07baf6743a6ea5628",
          "transactionIndex": "0xa",
          "logIndex": "0x2c",
          "removed": false
        }
      ],
      "logsBloom": "0x00000000000000000000000000000000000000000000100000000000000000000000000000000000000000000000000000000000000000000000000000000000000000000000000000000018000000000000000000000000000000002000000000000000020000000000000000000800000000000000000000000010000000000001000000000000000000000000000000000000000000000000000000000000000000000000000000000000000000000000000000000000000000000000000000000002000000000000000000000000000000000000000000000000000030000000000000000000000000200000000000000000000000000000000000000000",
      "type": "0x2",
      "transactionHash": "0x2edf4c6001813abc0c6b757cb73a39a94e51663c316f31d07baf6743a6ea5628",
      "transactionIndex": "0xa",
      "blockHash": "0x433ef21b7dbb15a90a4ebacacc8dc8163070b62d6de8f74d3349ee642c04acc0",
      "blockNumber": "0x20775dd",
      "gasUsed": "0x8445",
      "effectiveGasPrice": "0x13c248",
      "blobGasUsed": "0x79e0",
      "from": "0xef601a05d21d68384b127585ac886effc993894a",
      "to": "0xb94010ade8e47898e2eab0fc2036ff5998a94604",
      "contractAddress": null,
      "daFootprintGasScalar": "0x138",
      "l1BaseFeeScalar": "0x44d",
      "l1BlobBaseFee": "0x1",
      "l1BlobBaseFeeScalar": "0xa118b",
      "l1Fee": "0x180",
      "l1GasPrice": "0x9",
      "l1GasUsed": "0x640"
    },
    {
      "status": "0x1",
      "cumulativeGasUsed": "0x18a7e3",
      "logs": [
        {
          "address": "0xb94010ade8e47898e2eab0fc2036ff5998a94604",
          "topics": [
            "0x8c5be1e5ebec7d5bd14f71427d1e84f3dd0314c0f7b2291e5b200ac8c7c3b925",
            "0x000000000000000000000000ef601a05d21d68384b127585ac886effc993894a",
            "0x0000000000000000000000003997ed9d4cbf7d7d76419cc27a487a2c1de36386"
          ],
          "data": "0x0000000000000000000000000000000000000000000000000000000005f5e100",
          "blockHash": "0x433ef21b7dbb15a90a4ebacacc8dc8163070b62d6de8f74d3349ee642c04acc0",
          "blockNumber": "0x20775dd",
          "blockTimestamp": "0x69224a9a",
          "transactionHash": "0x5480777bab3b7383de362907d0bb9bfd25b7d18240dd6a1c4bdd05f7df3ca0e0",
          "transactionIndex": "0xb",
          "logIndex": "0x2d",
          "removed": false
        }
      ],
      "logsBloom": "0x00000000000000000000000000000000000000000000100000000000000000000000000000000000000000000000000000000000000000000000000000200000000000000000000000000010000000000000000000000000000000002000000000000800000000000000000000000000800000000000000000000000000000000001000000000000000000000000000000000000000000000000000000000000020000000000000000000000000000000000000000000000000000000000000000000000000100000000000000000000000000000000000000000000000010000010000000000000000000200000000000000000000000000000000000000000",
      "type": "0x2",
      "transactionHash": "0x5480777bab3b7383de362907d0bb9bfd25b7d18240dd6a1c4bdd05f7df3ca0e0",
      "transactionIndex": "0xb",
      "blockHash": "0x433ef21b7dbb15a90a4ebacacc8dc8163070b62d6de8f74d3349ee642c04acc0",
      "blockNumber": "0x20775dd",
      "gasUsed": "0xb361",
      "effectiveGasPrice": "0x13c248",
      "blobGasUsed": "0x79e0",
      "from": "0xef601a05d21d68384b127585ac886effc993894a",
      "to": "0xb94010ade8e47898e2eab0fc2036ff5998a94604",
      "contractAddress": null,
      "daFootprintGasScalar": "0x138",
      "l1BaseFeeScalar": "0x44d",
      "l1BlobBaseFee": "0x1",
      "l1BlobBaseFeeScalar": "0xa118b",
      "l1Fee": "0x180",
      "l1GasPrice": "0x9",
      "l1GasUsed": "0x640"
    },
    {
      "status": "0x1",
      "cumulativeGasUsed": "0x19e0ea",
      "logs": [
        {
          "address": "0xb94010ade8e47898e2eab0fc2036ff5998a94604",
          "topics": [
            "0xddf252ad1be2c89b69c2b068fc378daa952ba7f163c4a11628f55a4df523b3ef",
            "0x000000000000000000000000ef601a05d21d68384b127585ac886effc993894a",
            "0x0000000000000000000000003997ed9d4cbf7d7d76419cc27a487a2c1de36386"
          ],
          "data": "0x0000000000000000000000000000000000000000000000000000000005f5e100",
          "blockHash": "0x433ef21b7dbb15a90a4ebacacc8dc8163070b62d6de8f74d3349ee642c04acc0",
          "blockNumber": "0x20775dd",
          "blockTimestamp": "0x69224a9a",
          "transactionHash": "0x1d5b2dc8d7074ebbbf623102e4594b5baac3b17c17dfb902c9c61c04b1dee808",
          "transactionIndex": "0xc",
          "logIndex": "0x2e",
          "removed": false
        },
        {
          "address": "0x3997ed9d4cbf7d7d76419cc27a487a2c1de36386",
          "topics": [
            "0xe82f9de5acaa8d9b3291f9b8d118b433976f5cbbc63620e25b56181c5ad4ed67"
          ],
          "data": "0x0000000000000000000000000000000000000000000000000000000000000040b180335d88242f714c6388d8ea5408d19157cf9da8676e75364a44c497672e3100000000000000000000000000000000000000000000000000000000000000800000000000000000000000000000000000000000000000000000000005f5e100000000000000000000000000ef601a05d21d68384b127585ac886effc993894aa10f821b7160c9710708884d5314c507d4fd0baeadf39a60a6a0e73629acf8e3000000000000000000000000000000000000000000000000000000000000005168747470733a2f2f7777772e616d617a6f6e2e636f6d2f67702f796f75722d6163636f756e742f6f726465722d64657461696c732f3f6f7264657249443d3131312d313233343536372d38393031323334000000000000000000000000000000",
          "blockHash": "0x433ef21b7dbb15a90a4ebacacc8dc8163070b62d6de8f74d3349ee642c04acc0",
          "blockNumber": "0x20775dd",
          "blockTimestamp": "0x69224a9a",
          "transactionHash": "0x1d5b2dc8d7074ebbbf623102e4594b5baac3b17c17dfb902c9c61c04b1dee808",
          "transactionIndex": "0xc",
          "logIndex": "0x2f",
          "removed": false
        }
      ],
      "logsBloom": "0x00000000000000000000000000000001000000000000100000000000000000000000000000000000000000000000000000000000000000000000000000000000000000000000002000000018000000000000000000000000000000002000000000000800000000000080000000000000800000000000000000000010000000000001000000000000000000000000000000000000000000000000000000000000000000000000000000000000010000000000000000000000002000000000000000000002000100000000000000000000000000000000000000000000000010000000000000000000000000200000000000000000000000000000000000004000",
      "type": "0x2",
      "transactionHash": "0x1d5b2dc8d7074ebbbf623102e4594b5baac3b17c17dfb902c9c61c04b1dee808",
      "transactionIndex": "0xc",
      "blockHash": "0x433ef21b7dbb15a90a4ebacacc8dc8163070b62d6de8f74d3349ee642c04acc0",
      "blockNumber": "0x20775dd",
      "gasUsed": "0x13907",
      "effectiveGasPrice": "0x13c248",
      "blobGasUsed": "0xf288",
      "from": "0xef601a05d21d68384b127585ac886effc993894a",
      "to": "0x3997ed9d4cbf7d7d76419cc27a487a2c1de36386",
      "contractAddress": null,
      "daFootprintGasScalar": "0x138",
      "l1BaseFeeScalar": "0x44d",
      "l1BlobBaseFee": "0x1",
      "l1BlobBaseFeeScalar": "0xa118b",
      "l1Fee": "0x180",
      "l1GasPrice": "0x9",
      "l1GasUsed": "0xc7f"
    }
  ],
  "libraries": [],
  "pending": [],
  "returns": {},
  "timestamp": 1763855000,
  "chain": 84532,
  "commit": "dde5bee"
}