{
  "transactions": [
    {
      "hash": "0xb551f19fc68a50dc7dd5c18b217eb9303987cce7ce23f3e13e2a23b2100b0758",
      "transactionType": "CALL",
      "contractName": "MockUSDC",
      "contractAddress": "0xf5b1c4ee9009aac0df8636c281cd7f580a0c446a",
      "function": "mint(address,uint256)",
      "arguments": [
        "0xEF601A05D21D68384B127585ac886EFFC993894a",
        "110000000"
      ],
      "transaction": {
        "from": "0xef601a05d21d68384b127585ac886effc993894a",
        "to": "0xf5b1c4ee9009aac0df8636c281cd7f580a0c446a",
        "gas": "0x184e4",
        "value": "0x0",
        "input": "0x40c10f19000000000000000000000000ef601a05d21d68384b127585ac886effc993894a00000000000000000000000000000000000000000000000000000000068e7780",
        "nonce": "0x55",
        "chainId": "0x14a34"
      },
      "additionalContracts": [],
      "isFixedGasLimit": false
    },
    {
      "hash": "0xfabc2c1d1c998c5e5d794f5689749090579a208739de7b25d5afd667799d2e6f",
      "transactionType": "CALL",
      "contractName": "MockUSDC",
      "contractAddress": "0xf5b1c4ee9009aac0df8636c281cd7f580a0c446a",
      "function": "approve(address,uint256)",
      "arguments": [
        "0x45663169546dc59D5f8Dbe229139B18A100Bd613",
        "100000000"
      ],
      "transaction": {
        "from": "0xef601a05d21d68384b127585ac886effc993894a",
        "to": "0xf5b1c4ee9009aac0df8636c281cd7f580a0c446a",
        "gas": "0x10657",
        "value": "0x0",
        "input": "0x095ea7b300000000000000000000000045663169546dc59d5f8dbe229139b18a100bd6130000000000000000000000000000000000000000000000000000000005f5e100",
        "nonce": "0x56",
        "chainId": "0x14a34"
      },
      "additionalContracts": [],
      "isFixedGasLimit": false
    },
    {
      "hash": "0x8c4c60928869933a588cf37ad81a9350cb21551a3422fc8f158a621b51204dd2",
      "transactionType": "CALL",
      "contractName": "Treasury",
      "contractAddress": "0x45663169546dc59d5f8dbe229139b18a100bd613",
      "function": "list((string,uint256,address,bytes32))",
      "arguments": [
        "(https://www.amazon.com/gp/your-account/order-details/?orderID=111-1234567-8901234, 100000000, 0xEF601A05D21D68384B127585ac886EFFC993894a, 0xa10f821b7160c9710708884d5314c507d4fd0baeadf39a60a6a0e73629acf8e3)"
      ],
      "transaction": {
        "from": "0xef601a05d21d68384b127585ac886effc993894a",
        "to": "0x45663169546dc59d5f8dbe229139b18a100bd613",
        "gas": "0x59f2d",
        "value": "0x0",
        "input": "0x9d90ca85000000000000000000000000000000000000000000000000000000000000002000000000000000000000000000000000000000000000000000000000000000800000000000000000000000000000000000000000000000000000000005f5e100000000000000000000000000ef601a05d21d68384b127585ac886effc993894aa10f821b7160c9710708884d5314c507d4fd0baeadf39a60a6a0e73629acf8e3000000000000000000000000000000000000000000000000000000000000005168747470733a2f2f7777772e616d617a6f6e2e636f6d2f67702f796f75722d6163636f756e742f6f726465722d64657461696c732f3f6f7264657249443d3131312d313233343536372d38393031323334000000000000000000000000000000",
        "nonce": "0x57",
        "chainId": "0x14a34"
      },
      "additionalContracts": [],
      "isFixedGasLimit": false
    }
  ],
  "receipts": [
    {
      "status": "0x1",
      "cumulativeGasUsed": "0x226e9",
      "logs": [
        {
          "address": "0xf5b1c4ee9009aac0df8636c281cd7f580a0c446a",
          "topics": [
            "0xddf252ad1be2c89b69c2b068fc378daa952ba7f163c4a11628f55a4df523b3ef",
            "0x0000000000000000000000000000000000000000000000000000000000000000",
            "0x000000000000000000000000ef601a05d21d68384b127585ac886effc993894a"
          ],
          "data": "0x00000000000000000000000000000000000000000000000000000000068e7780",
          "blockHash": "0xba25f644a9f21f7bef5d9625586213312649528a4f9bcac7488aa12d5c56cff1",
          "blockNumber": "0x2076e12",
          "blockTimestamp": "0x69223b04",
          "transactionHash": "0xb551f19fc68a50dc7dd5c18b217eb9303987cce7ce23f3e13e2a23b2100b0758",
          "transactionIndex": "0x2",
          "logIndex": "0x1",
          "removed": false
        }
      ],
      "logsBloom": "0x00000000000000000000000000000000000000000000100000000000000000000000000000000000080000000020000000000000000000000000000000000000000000000000000000000008000000000000000000000000000000002000000000000000020000000000000000000800000000000000000000000010000000000001000000000000000000000000000000002000000000000000000000000000000000000000000000000000000000000000000000000000000000000000000000000002000000000000000000000000000000000000000000000000000020000000000000000000000000000000000000000000000000000000000000000000",
      "type": "0x2",
      "transactionHash": "0xb551f19fc68a50dc7dd5c18b217eb9303987cce7ce23f3e13e2a23b2100b0758",
      "transactionIndex": "0x2",
      "blockHash": "0xba25f644a9f21f7bef5d9625586213312649528a4f9bcac7488aa12d5c56cff1",
      "blockNumber": "0x2076e12",
      "gasUsed": "0x109e9",
      "effectiveGasPrice": "0x125e20",
      "blobGasUsed": "0x79e0",
      "from": "0xef601a05d21d68384b127585ac886effc993894a",
      "to": "0xf5b1c4ee9009aac0df8636c281cd7f580a0c446a",
      "contractAddress": null,
      "daFootprintGasScalar": "0x138",
      "l1BaseFeeScalar": "0x44d",
      "l1BlobBaseFee": "0x1",
      "l1BlobBaseFeeScalar": "0xa118b",
      "l1Fee": "0x55",
      "l1GasPrice": "0xb",
      "l1GasUsed": "0x640"
    },
    {
      "status": "0x1",
      "cumulativeGasUsed": "0x2da4a",
      "logs": [
        {
          "address": "0xf5b1c4ee9009aac0df8636c281cd7f580a0c446a",
          "topics": [
            "0x8c5be1e5ebec7d5bd14f71427d1e84f3dd0314c0f7b2291e5b200ac8c7c3b925",
            "0x000000000000000000000000ef601a05d21d68384b127585ac886effc993894a",
            "0x00000000000000000000000045663169546dc59d5f8dbe229139b18a100bd613"
          ],
          "data": "0x0000000000000000000000000000000000000000000000000000000005f5e100",
          "blockHash": "0xba25f644a9f21f7bef5d9625586213312649528a4f9bcac7488aa12d5c56cff1",
          "blockNumber": "0x2076e12",
          "blockTimestamp": "0x69223b04",
          "transactionHash": "0xfabc2c1d1c998c5e5d794f5689749090579a208739de7b25d5afd667799d2e6f",
          "transactionIndex": "0x3",
          "logIndex": "0x2",
          "removed": false
        }
      ],
      "logsBloom": "0x00000000000000000000400000000000000000000000100000000000000000000000000000000000080000000020000000000000000000000000000000200000000000000000000000000000000000000000000000000000000000002000000000000000000000000000000020000000000000000000000000000000000000000001000000000000000000000000000000002000000000000000000000000000020000000000000000000000000000000000000000004000000000000000000000000000000000000000000000000000000000000000000000000000000000000010000000000000000000000000000000000000000000000000000000000000",
      "type": "0x2",
      "transactionHash": "0xfabc2c1d1c998c5e5d794f5689749090579a208739de7b25d5afd667799d2e6f",
      "transactionIndex": "0x3",
      "blockHash": "0xba25f644a9f21f7bef5d9625586213312649528a4f9bcac7488aa12d5c56cff1",
      "blockNumber": "0x2076e12",
      "gasUsed": "0xb361",
      "effectiveGasPrice": "0x125e20",
      "blobGasUsed": "0x79e0",
      "from": "0xef601a05d21d68384b127585ac886effc993894a",
      "to": "0xf5b1c4ee9009aac0df8636c281cd7f580a0c446a",
      "contractAddress": null,
      "daFootprintGasScalar": "0x138",
      "l1BaseFeeScalar": "0x44d",
      "l1BlobBaseFee": "0x1",
      "l1BlobBaseFeeScalar": "0xa118b",
      "l1Fee": "0x55",
      "l1GasPrice": "0xb",
      "l1GasUsed": "0x640"
    },
    {
      "status": "0x1",
      "cumulativeGasUsed": "0x6ec3a",
      "logs": [
        {
          "address": "0xf5b1c4ee9009aac0df8636c281cd7f580a0c446a",
          "topics": [
            "0xddf252ad1be2c89b69c2b068fc378daa952ba7f163c4a11628f55a4df523b3ef",
            "0x000000000000000000000000ef601a05d21d68384b127585ac886effc993894a",
            "0x00000000000000000000000045663169546dc59d5f8dbe229139b18a100bd613"
          ],
          "data": "0x0000000000000000000000000000000000000000000000000000000005f5e100",
          "blockHash": "0xba25f644a9f21f7bef5d9625586213312649528a4f9bcac7488aa12d5c56cff1",
          "blockNumber": "0x2076e12",
          "blockTimestamp": "0x69223b04",
          "transactionHash": "0x8c4c60928869933a588cf37ad81a9350cb21551a3422fc8f158a621b51204dd2",
          "transactionIndex": "0x4",
          "logIndex": "0x3",
          "removed": false
        }
      ],
      "logsBloom": "0x00000000000000000000400000000000000000000000100000000000000000000000000000000000080000000020000000000000000000000000000000000000000000000000000000000008000000000000000000000000000000002000000000000000000000000000000020000000000000000000000000000010000000000001000000000000000000000000000000002000000000000000000000000000000000000000000000000000000000000000000000004000000000000000000000000002000000000000000000000000000000000000000000000000000000000000000000000000000000000000000000000000000000000000000000000000",
      "type": "0x2",
      "transactionHash": "0x8c4c60928869933a588cf37ad81a9350cb21551a3422fc8f158a621b51204dd2",
      "transactionIndex": "0x4",
      "blockHash": "0xba25f644a9f21f7bef5d9625586213312649528a4f9bcac7488aa12d5c56cff1",
      "blockNumber": "0x2076e12",
      "gasUsed": "0x411f0",
      "effectiveGasPrice": "0x125e20",
      "blobGasUsed": "0xf288",
      "from": "0xef601a05d21d68384b127585ac886effc993894a",
      "to": "0x45663169546dc59d5f8dbe229139b18a100bd613",
      "contractAddress": null,
      "daFootprintGasScalar": "0x138",
      "l1BaseFeeScalar": "0x44d",
      "l1BlobBaseFee": "0x1",
      "l1BlobBaseFeeScalar": "0xa118b",
      "l1Fee": "0x55",
      "l1GasPrice": "0xb",
      "l1GasUsed": "0xc7f"
    }
  ],
  "libraries": [],
  "pending": [],
  "returns": {},
  "timestamp": 1763851010,
  "chain": 84532,
  "commit": "dde5bee"
}