{
  "transactions": [
    {
      "hash": "0x0ecb0a897eaa0b002f874d27f922fd232811bb998f56f70d4a70a0a297a3e079",
      "transactionType": "CALL",
      "contractName": "MockUSDC",
      "contractAddress": "0x57d21b59d2dd2b45fe101c15d342c8d43f521388",
      "function": "mint(address,uint256)",
      "arguments": [
        "0xEF601A05D21D68384B127585ac886EFFC993894a",
        "100000000"
      ],
      "transaction": {
        "from": "0xef601a05d21d68384b127585ac886effc993894a",
        "to": "0x57d21b59d2dd2b45fe101c15d342c8d43f521388",
        "gas": "0xb6b2",
        "value": "0x0",
        "input": "0x40c10f19000000000000000000000000ef601a05d21d68384b127585ac886effc993894a0000000000000000000000000000000000000000000000000000000005f5e100",
        "nonce": "0x85",
        "chainId": "0x14a34"
      },
      "additionalContracts": [],
      "isFixedGasLimit": false
    },
    {
      "hash": "0xba9b6805b8b6515a6997fcae9fc93ed09f83174f612a7a07044a6b016d099aea",
      "transactionType": "CALL",
      "contractName": "MockUSDC",
      "contractAddress": "0x57d21b59d2dd2b45fe101c15d342c8d43f521388",
      "function": "approve(address,uint256)",
      "arguments": [
        "0xBe7f387bA8246ff2C00cE5bf4A3CCCD7A4b04044",
        "100000000"
      ],
      "transaction": {
        "from": "0xef601a05d21d68384b127585ac886effc993894a",
        "to": "0x57d21b59d2dd2b45fe101c15d342c8d43f521388",
        "gas": "0x10657",
        "value": "0x0",
        "input": "0x095ea7b3000000000000000000000000be7f387ba8246ff2c00ce5bf4a3cccd7a4b040440000000000000000000000000000000000000000000000000000000005f5e100",
        "nonce": "0x86",
        "chainId": "0x14a34"
      },
      "additionalContracts": [],
      "isFixedGasLimit": false
    },
    {
      "hash": "0x5760124f2b255b9894b5d2b1f1e66d0305340aff5b257fb1f6216d3c5ae2ceba",
      "transactionType": "CALL",
      "contractName": null,
      "contractAddress": "0xbe7f387ba8246ff2c00ce5bf4a3cccd7a4b04044",
      "function": "list((string,string,uint256,address,bytes32))",
      "arguments": [
        "(https://test-1111111111111111111111111111111111711111111111125595.myshopify.com/admin/api/2024-01/orders/16447065227633.json, 15334575571313, 100000000, 0xEF601A05D21D68384B127585ac886EFFC993894a, 0xa10f821b7160c9710708884d5314c507d4fd0baeadf39a60a6a0e73629acf8e3)"
      ],
      "transaction": {
        "from": "0xef601a05d21d68384b127585ac886effc993894a",
        "to": "0xbe7f387ba8246ff2c00ce5bf4a3cccd7a4b04044",
        "gas": "0x5f5f2",
        "value": "0x0",
        "input": "0x9d0d71ca000000000000000000000000000000000000000000000000000000000000002000000000000000000000000000000000000000000000000000000000000000a000000000000000000000000000000000000000000000000000000000000001400000000000000000000000000000000000000000000000000000000005f5e100000000000000000000000000ef601a05d21d68384b127585ac886effc993894aa10f821b7160c9710708884d5314c507d4fd0baeadf39a60a6a0e73629acf8e3000000000000000000000000000000000000000000000000000000000000007c68747470733a2f2f746573742d313131313131313131313131313131313131313131313131313131313131313131313731313131313131313131313132353539352e6d7973686f706966792e636f6d2f61646d696e2f6170692f323032342d30312f6f72646572732f31363434373036353232373633332e6a736f6e00000000000000000000000000000000000000000000000000000000000000000000000e3135333334353735353731333133000000000000000000000000000000000000",
        "nonce": "0x87",
        "chainId": "0x14a34"
      },
      "additionalContracts": [],
      "isFixedGasLimit": false
    }
  ],
  "receipts": [
    {
      "status": "0x1",
      "cumulativeGasUsed": "0x1e174ef",
      "logs": [
        {
          "address": "0x57d21b59d2dd2b45fe101c15d342c8d43f521388",
          "topics": [
            "0xddf252ad1be2c89b69c2b068fc378daa952ba7f163c4a11628f55a4df523b3ef",
            "0x0000000000000000000000000000000000000000000000000000000000000000",
            "0x000000000000000000000000ef601a05d21d68384b127585ac886effc993894a"
          ],
          "data": "0x0000000000000000000000000000000000000000000000000000000005f5e100",
          "blockHash": "0xf512712337d9e0117d37ad09f134cba2aecd431fdb91fe0241390da872216422",
          "blockNumber": "0x20783a8",
          "blockTimestamp": "0x69226630",
          "transactionHash": "0x0ecb0a897eaa0b002f874d27f922fd232811bb998f56f70d4a70a0a297a3e079",
          "transactionIndex": "0x11",
          "logIndex": "0x65",
          "removed": false
        }
      ],
      "logsBloom": "0x00000000000000000000000000000000000000000000100000000000000000000000000000080000000000000000000000000000000000000000000000000000000000000000000000000008000000000000000000000000000000002000000000000000020000000000000000000800000000000000000000000010000000000001000000000000000000000000000000000000000000000000000000000000000000000000001000000000000000000000000000000000000000000000000000000002000000000000000000000000000000000000000000000000000020000000000000000000000000000000000000000000000000000000000040000000",
      "type": "0x2",
      "transactionHash": "0x0ecb0a897eaa0b002f874d27f922fd232811bb998f56f70d4a70a0a297a3e079",
      "transactionIndex": "0x11",
      "blockHash": "0xf512712337d9e0117d37ad09f134cba2aecd431fdb91fe0241390da872216422",
      "blockNumber": "0x20783a8",
      "gasUsed": "0x8445",
      "effectiveGasPrice": "0x3984b7",
      "blobGasUsed": "0x79e0",
      "from": "0xef601a05d21d68384b127585ac886effc993894a",
      "to": "0x57d21b59d2dd2b45fe101c15d342c8d43f521388",
      "contractAddress": null,
      "daFootprintGasScalar": "0x138",
      "l1BaseFeeScalar": "0x44d",
      "l1BlobBaseFee": "0x1",
      "l1BlobBaseFeeScalar": "0xa118b",
      "l1Fee": "0x7fc",
      "l1GasPrice": "0xe",
      "l1GasUsed": "0x640"
    },
    {
      "status": "0x1",
      "cumulativeGasUsed": "0x1e524d4",
      "logs": [
        {
          "address": "0x57d21b59d2dd2b45fe101c15d342c8d43f521388",
          "topics": [
            "0x8c5be1e5ebec7d5bd14f71427d1e84f3dd0314c0f7b2291e5b200ac8c7c3b925",
            "0x000000000000000000000000ef601a05d21d68384b127585ac886effc993894a",
            "0x000000000000000000000000be7f387ba8246ff2c00ce5bf4a3cccd7a4b04044"
          ],
          "data": "0x0000000000000000000000000000000000000000000000000000000005f5e100",
          "blockHash": "0xf512712337d9e0117d37ad09f134cba2aecd431fdb91fe0241390da872216422",
          "blockNumber": "0x20783a8",
          "blockTimestamp": "0x69226630",
          "transactionHash": "0xba9b6805b8b6515a6997fcae9fc93ed09f83174f612a7a07044a6b016d099aea",
          "transactionIndex": "0x13",
          "logIndex": "0x6b",
          "removed": false
        }
      ],
      "logsBloom": "0x00000000000000000000000000000000000000000000100000000000000000000000000000080000000000000000000000000000000000000000000001200000000000000000000000000000000000000000000000000000000000002000000000000000000000000000000000000000000000000000000000000000000000000001000000000000000000000000000000000000000000000000000000000000020000000000001000000000000000000000000000000000000000000000080000000000000000000000000000000000000000000000000000000000000000000010000000000000020000000000000000000000000000000000000040000000",
      "type": "0x2",
      "transactionHash": "0xba9b6805b8b6515a6997fcae9fc93ed09f83174f612a7a07044a6b016d099aea",
      "transactionIndex": "0x13",
      "blockHash": "0xf512712337d9e0117d37ad09f134cba2aecd431fdb91fe0241390da872216422",
      "blockNumber": "0x20783a8",
      "gasUsed": "0xb361",
      "effectiveGasPrice": "0x3984b7",
      "blobGasUsed": "0x79e0",
      "from": "0xef601a05d21d68384b127585ac886effc993894a",
      "to": "0x57d21b59d2dd2b45fe101c15d342c8d43f521388",
      "contractAddress": null,
      "daFootprintGasScalar": "0x138",
      "l1BaseFeeScalar": "0x44d",
      "l1BlobBaseFee": "0x1",
      "l1BlobBaseFeeScalar": "0xa118b",
      "l1Fee": "0x7fc",
      "l1GasPrice": "0xe",
      "l1GasUsed": "0x640"
    },
    {
      "status": "0x1",
      "cumulativeGasUsed": "0x1e93836",
      "logs": [
        {
          "address": "0x57d21b59d2dd2b45fe101c15d342c8d43f521388",
          "topics": [
            "0xddf252ad1be2c89b69c2b068fc378daa952ba7f163c4a11628f55a4df523b3ef",
            "0x000000000000000000000000ef601a05d21d68384b127585ac886effc993894a",
            "0x000000000000000000000000be7f387ba8246ff2c00ce5bf4a3cccd7a4b04044"
          ],
          "data": "0x0000000000000000000000000000000000000000000000000000000005f5e100",
          "blockHash": "0xf512712337d9e0117d37ad09f134cba2aecd431fdb91fe0241390da872216422",
          "blockNumber": "0x20783a8",
          "blockTimestamp": "0x69226630",
          "transactionHash": "0x5760124f2b255b9894b5d2b1f1e66d0305340aff5b257fb1f6216d3c5ae2ceba",
          "transactionIndex": "0x14",
          "logIndex": "0x6c",
          "removed": false
        },
        {
          "address": "0xbe7f387ba8246ff2c00ce5bf4a3cccd7a4b04044",
          "topics": [
            "0xe1e8e5f42b49a5c22e59b67a128a192afb3ff14a69c0770380c5cbb8a64b9eb6"
          ],
          "data": "0x000000000000000000000000000000000000000000000000000000000000004007413ffd7c6d4acca3d30aaa2752cec3a1f3d1c33f4ce5aa57d3e5fcb7a7e35700000000000000000000000000000000000000000000000000000000000000a000000000000000000000000000000000000000000000000000000000000001400000000000000000000000000000000000000000000000000000000005f5e100000000000000000000000000ef601a05d21d68384b127585ac886effc993894aa10f821b7160c9710708884d5314c507d4fd0baeadf39a60a6a0e73629acf8e3000000000000000000000000000000000000000000000000000000000000007c68747470733a2f2f746573742d313131313131313131313131313131313131313131313131313131313131313131313731313131313131313131313132353539352e6d7973686f706966792e636f6d2f61646d696e2f6170692f323032342d30312f6f72646572732f31363434373036353232373633332e6a736f6e00000000000000000000000000000000000000000000000000000000000000000000000e3135333334353735353731333133000000000000000000000000000000000000",
          "blockHash": "0xf512712337d9e0117d37ad09f134cba2aecd431fdb91fe0241390da872216422",
          "blockNumber": "0x20783a8",
          "blockTimestamp": "0x69226630",
          "transactionHash": "0x5760124f2b255b9894b5d2b1f1e66d0305340aff5b257fb1f6216d3c5ae2ceba",
          "transactionIndex": "0x14",
          "logIndex": "0x6d",
          "removed": false
        }
      ],
      "logsBloom": "0x00000000000000000000000000000000000000000000100000000000000000000000000000080000000000000000000000000000000000000002000001000000000000000000000000008008000000000000000000000000000000002000000000000000000000000000000000000000000000000000000000000010000000000001000800400000000000000000000000000000000000800000000000000000000000000000001000000000000000000001000000000000000000000000080000000002000000000000000000000000000000000000000000000000000000000000000000000000020000000000000000000000000000000000000040000000",
      "type": "0x2",
      "transactionHash": "0x5760124f2b255b9894b5d2b1f1e66d0305340aff5b257fb1f6216d3c5ae2ceba",
      "transactionIndex": "0x14",
      "blockHash": "0xf512712337d9e0117d37ad09f134cba2aecd431fdb91fe0241390da872216422",
      "blockNumber": "0x20783a8",
      "gasUsed": "0x41362",
      "effectiveGasPrice": "0x3984b7",
      "blobGasUsed": "0x11fa0",
      "from": "0xef601a05d21d68384b127585ac886effc993894a",
      "to": "0xbe7f387ba8246ff2c00ce5bf4a3cccd7a4b04044",
      "contractAddress": null,
      "daFootprintGasScalar": "0x138",
      "l1BaseFeeScalar": "0x44d",
      "l1BlobBaseFee": "0x1",
      "l1BlobBaseFeeScalar": "0xa118b",
      "l1Fee": "0x7fc",
      "l1GasPrice": "0xe",
      "l1GasUsed": "0xecc"
    }
  ],
  "libraries": [],
  "pending": [],
  "returns": {},
  "timestamp": 1763862063,
  "chain": 84532,
  "commit": "e78010d"
}