{
  "transactions": [
    {
      "hash": "0xd22943ed45c91aa30ff1efd5c2b9d495e3afdba77c2f506700582f633dace07e",
      "transactionType": "CALL",
      "contractName": "MockUSDC",
      "contractAddress": "0xb94010ade8e47898e2eab0fc2036ff5998a94604",
      "function": "mint(address,uint256)",
      "arguments": [
        "0xEF601A05D21D68384B127585ac886EFFC993894a",
        "100000000"
      ],
      "transaction": {
        "from": "0xef601a05d21d68384b127585ac886effc993894a",
        "to": "0xb94010ade8e47898e2eab0fc2036ff5998a94604",
        "gas": "0xb6b2",
        "value": "0x0",
        "input": "0x40c10f19000000000000000000000000ef601a05d21d68384b127585ac886effc993894a0000000000000000000000000000000000000000000000000000000005f5e100",
        "nonce": "0x76",
        "chainId": "0x14a34"
      },
      "additionalContracts": [],
      "isFixedGasLimit": false
    },
    {
      "hash": "0x2286ad082539d70c59ee039fe701320455ac2d7d4d35e5e8a98526c3ab7ce069",
      "transactionType": "CALL",
      "contractName": "MockUSDC",
      "contractAddress": "0xb94010ade8e47898e2eab0fc2036ff5998a94604",
      "function": "approve(address,uint256)",
      "arguments": [
        "0x3997Ed9d4cbF7d7d76419CC27A487A2C1dE36386",
        "100000000"
      ],
      "transaction": {
        "from": "0xef601a05d21d68384b127585ac886effc993894a",
        "to": "0xb94010ade8e47898e2eab0fc2036ff5998a94604",
        "gas": "0x10657",
        "value": "0x0",
        "input": "0x095ea7b30000000000000000000000003997ed9d4cbf7d7d76419cc27a487a2c1de363860000000000000000000000000000000000000000000000000000000005f5e100",
        "nonce": "0x77",
        "chainId": "0x14a34"
      },
      "additionalContracts": [],
      "isFixedGasLimit": false
    },
    {
      "hash": "0x7e141c10b01618828b8dd598f58383cb445433e46d8a2578d648a148a3cfabba",
      "transactionType": "CALL",
      "contractName": "Treasury",
      "contractAddress": "0x3997ed9d4cbf7d7d76419cc27a487a2c1de36386",
      "function": "list((string,uint256,address,bytes32))",
      "arguments": [
        "(https://data-api.binance.vision/api/v3/ticker/price?symbol=ETHUSDC, 100000000, 0xEF601A05D21D68384B127585ac886EFFC993894a, 0xa10f821b7160c9710708884d5314c507d4fd0baeadf39a60a6a0e73629acf8e3)"
      ],
      "transaction": {
        "from": "0xef601a05d21d68384b127585ac886effc993894a",
        "to": "0x3997ed9d4cbf7d7d76419cc27a487a2c1de36386",
        "gas": "0x1c8c5",
        "value": "0x0",
        "input": "0x9d90ca85000000000000000000000000000000000000000000000000000000000000002000000000000000000000000000000000000000000000000000000000000000800000000000000000000000000000000000000000000000000000000005f5e100000000000000000000000000ef601a05d21d68384b127585ac886effc993894aa10f821b7160c9710708884d5314c507d4fd0baeadf39a60a6a0e73629acf8e3000000000000000000000000000000000000000000000000000000000000004268747470733a2f2f646174612d6170692e62696e616e63652e766973696f6e2f6170692f76332f7469636b65722f70726963653f73796d626f6c3d45544855534443000000000000000000000000000000000000000000000000000000000000",
        "nonce": "0x78",
        "chainId": "0x14a34"
      },
      "additionalContracts": [],
      "isFixedGasLimit": false
    }
  ],
  "receipts": [
    {
      "status": "0x1",
      "cumulativeGasUsed": "0x27d28d",
      "logs": [
        {
          "address": "0xb94010ade8e47898e2eab0fc2036ff5998a94604",
          "topics": [
            "0xddf252ad1be2c89b69c2b068fc378daa952ba7f163c4a11628f55a4df523b3ef",
            "0x0000000000000000000000000000000000000000000000000000000000000000",
            "0x000000000000000000000000ef601a05d21d68384b127585ac886effc993894a"
          ],
          "data": "0x0000000000000000000000000000000000000000000000000000000005f5e100",
          "blockHash": "0x549ac27bb2b9842957db97facc4adffac4b7d73b9219dc1c271f3b845fbc89e4",
          "blockNumber": "0x2077863",
          "blockTimestamp": "0x69224fa6",
          "transactionHash": "0xd22943ed45c91aa30ff1efd5c2b9d495e3afdba77c2f506700582f633dace07e",
          "transactionIndex": "0xa",
          "logIndex": "0x5d",
          "removed": false
        }
      ],
      "logsBloom": "0x00000000000000000000000000000000000000000000100000000000000000000000000000000000000000000000000000000000000000000000000000000000000000000000000000000018000000000000000000000000000000002000000000000000020000000000000000000800000000000000000000000010000000000001000000000000000000000000000000000000000000000000000000000000000000000000000000000000000000000000000000000000000000000000000000000002000000000000000000000000000000000000000000000000000030000000000000000000000000200000000000000000000000000000000000000000",
      "type": "0x2",
      "transactionHash": "0xd22943ed45c91aa30ff1efd5c2b9d495e3afdba77c2f506700582f633dace07e",
      "transactionIndex": "0xa",
      "blockHash": "0x549ac27bb2b9842957db97facc4adffac4b7d73b9219dc1c271f3b845fbc89e4",
      "blockNumber": "0x2077863",
      "gasUsed": "0x8445",
      "effectiveGasPrice": "0x127e15",
      "blobGasUsed": "0x79e0",
      "from": "0xef601a05d21d68384b127585ac886effc993894a",
      "to": "0xb94010ade8e47898e2eab0fc2036ff5998a94604",
      "contractAddress": null,
      "daFootprintGasScalar": "0x138",
      "l1BaseFeeScalar": "0x44d",
      "l1BlobBaseFee": "0x1",
      "l1BlobBaseFeeScalar": "0xa118b",
      "l1Fee": "0x51",
      "l1GasPrice": "0x9",
      "l1GasUsed": "0x640"
    },
    {
      "status": "0x1",
      "cumulativeGasUsed": "0x2885ee",
      "logs": [
        {
          "address": "0xb94010ade8e47898e2eab0fc2036ff5998a94604",
          "topics": [
            "0x8c5be1e5ebec7d5bd14f71427d1e84f3dd0314c0f7b2291e5b200ac8c7c3b925",
            "0x000000000000000000000000ef601a05d21d68384b127585ac886effc993894a",
            "0x0000000000000000000000003997ed9d4cbf7d7d76419cc27a487a2c1de36386"
          ],
          "data": "0x0000000000000000000000000000000000000000000000000000000005f5e100",
          "blockHash": "0x549ac27bb2b9842957db97facc4adffac4b7d73b9219dc1c271f3b845fbc89e4",
          "blockNumber": "0x2077863",
          "blockTimestamp": "0x69224fa6",
          "transactionHash": "0x2286ad082539d70c59ee039fe701320455ac2d7d4d35e5e8a98526c3ab7ce069",
          "transactionIndex": "0xb",
          "logIndex": "0x5e",
          "removed": false
        }
      ],
      "logsBloom": "0x00000000000000000000000000000000000000000000100000000000000000000000000000000000000000000000000000000000000000000000000000200000000000000000000000000010000000000000000000000000000000002000000000000800000000000000000000000000800000000000000000000000000000000001000000000000000000000000000000000000000000000000000000000000020000000000000000000000000000000000000000000000000000000000000000000000000100000000000000000000000000000000000000000000000010000010000000000000000000200000000000000000000000000000000000000000",
      "type": "0x2",
      "transactionHash": "0x2286ad082539d70c59ee039fe701320455ac2d7d4d35e5e8a98526c3ab7ce069",
      "transactionIndex": "0xb",
      "blockHash": "0x549ac27bb2b9842957db97facc4adffac4b7d73b9219dc1c271f3b845fbc89e4",
      "blockNumber": "0x2077863",
      "gasUsed": "0xb361",
      "effectiveGasPrice": "0x127e15",
      "blobGasUsed": "0x79e0",
      "from": "0xef601a05d21d68384b127585ac886effc993894a",
      "to": "0xb94010ade8e47898e2eab0fc2036ff5998a94604",
      "contractAddress": null,
      "daFootprintGasScalar": "0x138",
      "l1BaseFeeScalar": "0x44d",
      "l1BlobBaseFee": "0x1",
      "l1BlobBaseFeeScalar": "0xa118b",
      "l1Fee": "0x51",
      "l1GasPrice": "0x9",
      "l1GasUsed": "0x640"
    },
    {
      "status": "0x1",
      "cumulativeGasUsed": "0x29be41",
      "logs": [
        {
          "address": "0xb94010ade8e47898e2eab0fc2036ff5998a94604",
          "topics": [
            "0xddf252ad1be2c89b69c2b068fc378daa952ba7f163c4a11628f55a4df523b3ef",
            "0x000000000000000000000000ef601a05d21d68384b127585ac886effc993894a",
            "0x0000000000000000000000003997ed9d4cbf7d7d76419cc27a487a2c1de36386"
          ],
          "data": "0x0000000000000000000000000000000000000000000000000000000005f5e100",
          "blockHash": "0x549ac27bb2b9842957db97facc4adffac4b7d73b9219dc1c271f3b845fbc89e4",
          "blockNumber": "0x2077863",
          "blockTimestamp": "0x69224fa6",
          "transactionHash": "0x7e141c10b01618828b8dd598f58383cb445433e46d8a2578d648a148a3cfabba",
          "transactionIndex": "0xc",
          "logIndex": "0x5f",
          "removed": false
        },
        {
          "address": "0x3997ed9d4cbf7d7d76419cc27a487a2c1de36386",
          "topics": [
            "0xe82f9de5acaa8d9b3291f9b8d118b433976f5cbbc63620e25b56181c5ad4ed67"
          ],
          "data": "0x0000000000000000000000000000000000000000000000000000000000000040501cc816f46776a08a5b60590561c6d3e080664691d3960778d8e1d307f2e64700000000000000000000000000000000000000000000000000000000000000800000000000000000000000000000000000000000000000000000000005f5e100000000000000000000000000ef601a05d21d68384b127585ac886effc993894aa10f821b7160c9710708884d5314c507d4fd0baeadf39a60a6a0e73629acf8e3000000000000000000000000000000000000000000000000000000000000004268747470733a2f2f646174612d6170692e62696e616e63652e766973696f6e2f6170692f76332f7469636b65722f70726963653f73796d626f6c3d45544855534443000000000000000000000000000000000000000000000000000000000000",
          "blockHash": "0x549ac27bb2b9842957db97facc4adffac4b7d73b9219dc1c271f3b845fbc89e4",
          "blockNumber": "0x2077863",
          "blockTimestamp": "0x69224fa6",
          "transactionHash": "0x7e141c10b01618828b8dd598f58383cb445433e46d8a2578d648a148a3cfabba",
          "transactionIndex": "0xc",
          "logIndex": "0x60",
          "removed": false
        }
      ],
      "logsBloom": "0x00000000000000000000000000000001000000000000100000000000000000000000000000000000000000000000000000000000000000000000000000000000000000000000002000000018000000000000000000000000000000002000000000000800000000000080000000000000800000000000000000000010000000000001000000000000000000000000000000000000000000000000000000000000000000000000000000000000010000000000000000000000002000000000000000000002000100000000000000000000000000000000000000000000000010000000000000000000000000200000000000000000000000000000000000004000",
      "type": "0x2",
      "transactionHash": "0x7e141c10b01618828b8dd598f58383cb445433e46d8a2578d648a148a3cfabba",
      "transactionIndex": "0xc",
      "blockHash": "0x549ac27bb2b9842957db97facc4adffac4b7d73b9219dc1c271f3b845fbc89e4",
      "blockNumber": "0x2077863",
      "gasUsed": "0x13853",
      "effectiveGasPrice": "0x127e15",
      "blobGasUsed": "0xeb38",
      "from": "0xef601a05d21d68384b127585ac886effc993894a",
      "to": "0x3997ed9d4cbf7d7d76419cc27a487a2c1de36386",
      "contractAddress": null,
      "daFootprintGasScalar": "0x138",
      "l1BaseFeeScalar": "0x44d",
      "l1BlobBaseFee": "0x1",
      "l1BlobBaseFeeScalar": "0xa118b",
      "l1Fee": "0x51",
      "l1GasPrice": "0x9",
      "l1GasUsed": "0xc14"
    }
  ],
  "libraries": [],
  "pending": [],
  "returns": {},
  "timestamp": 1763856293,
  "chain": 84532,
  "commit": "e78010d"
}