{
  "transactions": [
    {
      "hash": "0x45e5a77b7d4b8d221e7d770ec55be458c35457278d32aaddcfd46ed7eb8ee01b",
      "transactionType": "CALL",
      "contractName": "MockUSDC",
      "contractAddress": "0xb94010ade8e47898e2eab0fc2036ff5998a94604",
      "function": "mint(address,uint256)",
      "arguments": [
        "0xEF601A05D21D68384B127585ac886EFFC993894a",
        "100000000"
      ],
      "transaction": {
        "from": "0xef601a05d21d68384b127585ac886effc993894a",
        "to": "0xb94010ade8e47898e2eab0fc2036ff5998a94604",
        "gas": "0xb6b2",
        "value": "0x0",
        "input": "0x40c10f19000000000000000000000000ef601a05d21d68384b127585ac886effc993894a0000000000000000000000000000000000000000000000000000000005f5e100",
        "nonce": "0x73",
        "chainId": "0x14a34"
      },
      "additionalContracts": [],
      "isFixedGasLimit": false
    },
    {
      "hash": "0x78fc581302d56af86b8c77cdd496a1591ed271486a5b3672d11f9d9ba67ff098",
      "transactionType": "CALL",
      "contractName": "MockUSDC",
      "contractAddress": "0xb94010ade8e47898e2eab0fc2036ff5998a94604",
      "function": "approve(address,uint256)",
      "arguments": [
        "0x3997Ed9d4cbF7d7d76419CC27A487A2C1dE36386",
        "100000000"
      ],
      "transaction": {
        "from": "0xef601a05d21d68384b127585ac886effc993894a",
        "to": "0xb94010ade8e47898e2eab0fc2036ff5998a94604",
        "gas": "0x10657",
        "value": "0x0",
        "input": "0x095ea7b30000000000000000000000003997ed9d4cbf7d7d76419cc27a487a2c1de363860000000000000000000000000000000000000000000000000000000005f5e100",
        "nonce": "0x74",
        "chainId": "0x14a34"
      },
      "additionalContracts": [],
      "isFixedGasLimit": false
    },
    {
      "hash": "0x3c6ed0d5b5f612f8462bcfdb3477ad85506759aa6ebf368232852cd4427fd442",
      "transactionType": "CALL",
      "contractName": "Treasury",
      "contractAddress": "0x3997ed9d4cbf7d7d76419cc27a487a2c1de36386",
      "function": "list((string,uint256,address,bytes32))",
      "arguments": [
        "(https://data-api.binance.vision/api/v3/ticker/price?symbol=ETHUSDC, 100000000, 0xEF601A05D21D68384B127585ac886EFFC993894a, 0xa10f821b7160c9710708884d5314c507d4fd0baeadf39a60a6a0e73629acf8e3)"
      ],
      "transaction": {
        "from": "0xef601a05d21d68384b127585ac886effc993894a",
        "to": "0x3997ed9d4cbf7d7d76419cc27a487a2c1de36386",
        "gas": "0x1c8c5",
        "value": "0x0",
        "input": "0x9d90ca85000000000000000000000000000000000000000000000000000000000000002000000000000000000000000000000000000000000000000000000000000000800000000000000000000000000000000000000000000000000000000005f5e100000000000000000000000000ef601a05d21d68384b127585ac886effc993894aa10f821b7160c9710708884d5314c507d4fd0baeadf39a60a6a0e73629acf8e3000000000000000000000000000000000000000000000000000000000000004268747470733a2f2f646174612d6170692e62696e616e63652e766973696f6e2f6170692f76332f7469636b65722f70726963653f73796d626f6c3d45544855534443000000000000000000000000000000000000000000000000000000000000",
        "nonce": "0x75",
        "chainId": "0x14a34"
      },
      "additionalContracts": [],
      "isFixedGasLimit": false
    }
  ],
  "receipts": [
    {
      "status": "0x1",
      "cumulativeGasUsed": "0x45e33a",
      "logs": [
        {
          "address": "0xb94010ade8e47898e2eab0fc2036ff5998a94604",
          "topics": [
            "0xddf252ad1be2c89b69c2b068fc378daa952ba7f163c4a11628f55a4df523b3ef",
            "0x0000000000000000000000000000000000000000000000000000000000000000",
            "0x000000000000000000000000ef601a05d21d68384b127585ac886effc993894a"
          ],
          "data": "0x0000000000000000000000000000000000000000000000000000000005f5e100",
          "blockHash": "0x1f13770ce1766d9d23258f85e7aaa31d17740fc0b181c56c59248bda49554dcf",
          "blockNumber": "0x207771e",
          "blockTimestamp": "0x69224d1c",
          "transactionHash": "0x45e5a77b7d4b8d221e7d770ec55be458c35457278d32aaddcfd46ed7eb8ee01b",
          "transactionIndex": "0x8",
          "logIndex": "0x7d",
          "removed": false
        }
      ],
      "logsBloom": "0x00000000000000000000000000000000000000000000100000000000000000000000000000000000000000000000000000000000000000000000000000000000000000000000000000000018000000000000000000000000000000002000000000000000020000000000000000000800000000000000000000000010000000000001000000000000000000000000000000000000000000000000000000000000000000000000000000000000000000000000000000000000000000000000000000000002000000000000000000000000000000000000000000000000000030000000000000000000000000200000000000000000000000000000000000000000",
      "type": "0x2",
      "transactionHash": "0x45e5a77b7d4b8d221e7d770ec55be458c35457278d32aaddcfd46ed7eb8ee01b",
      "transactionIndex": "0x8",
      "blockHash": "0x1f13770ce1766d9d23258f85e7aaa31d17740fc0b181c56c59248bda49554dcf",
      "blockNumber": "0x207771e",
      "gasUsed": "0x8445",
      "effectiveGasPrice": "0x133108",
      "blobGasUsed": "0x79e0",
      "from": "0xef601a05d21d68384b127585ac886effc993894a",
      "to": "0xb94010ade8e47898e2eab0fc2036ff5998a94604",
      "contractAddress": null,
      "daFootprintGasScalar": "0x138",
      "l1BaseFeeScalar": "0x44d",
      "l1BlobBaseFee": "0x1",
      "l1BlobBaseFeeScalar": "0xa118b",
      "l1Fee": "0x51",
      "l1GasPrice": "0x9",
      "l1GasUsed": "0x640"
    },
    {
      "status": "0x1",
      "cumulativeGasUsed": "0x46969b",
      "logs": [
        {
          "address": "0xb94010ade8e47898e2eab0fc2036ff5998a94604",
          "topics": [
            "0x8c5be1e5ebec7d5bd14f71427d1e84f3dd0314c0f7b2291e5b200ac8c7c3b925",
            "0x000000000000000000000000ef601a05d21d68384b127585ac886effc993894a",
            "0x0000000000000000000000003997ed9d4cbf7d7d76419cc27a487a2c1de36386"
          ],
          "data": "0x0000000000000000000000000000000000000000000000000000000005f5e100",
          "blockHash": "0x1f13770ce1766d9d23258f85e7aaa31d17740fc0b181c56c59248bda49554dcf",
          "blockNumber": "0x207771e",
          "blockTimestamp": "0x69224d1c",
          "transactionHash": "0x78fc581302d56af86b8c77cdd496a1591ed271486a5b3672d11f9d9ba67ff098",
          "transactionIndex": "0x9",
          "logIndex": "0x7e",
          "removed": false
        }
      ],
      "logsBloom": "0x00000000000000000000000000000000000000000000100000000000000000000000000000000000000000000000000000000000000000000000000000200000000000000000000000000010000000000000000000000000000000002000000000000800000000000000000000000000800000000000000000000000000000000001000000000000000000000000000000000000000000000000000000000000020000000000000000000000000000000000000000000000000000000000000000000000000100000000000000000000000000000000000000000000000010000010000000000000000000200000000000000000000000000000000000000000",
      "type": "0x2",
      "transactionHash": "0x78fc581302d56af86b8c77cdd496a1591ed271486a5b3672d11f9d9ba67ff098",
      "transactionIndex": "0x9",
      "blockHash": "0x1f13770ce1766d9d23258f85e7aaa31d17740fc0b181c56c59248bda49554dcf",
      "blockNumber": "0x207771e",
      "gasUsed": "0xb361",
      "effectiveGasPrice": "0x133108",
      "blobGasUsed": "0x79e0",
      "from": "0xef601a05d21d68384b127585ac886effc993894a",
      "to": "0xb94010ade8e47898e2eab0fc2036ff5998a94604",
      "contractAddress": null,
      "daFootprintGasScalar": "0x138",
      "l1BaseFeeScalar": "0x44d",
      "l1BlobBaseFee": "0x1",
      "l1BlobBaseFeeScalar": "0xa118b",
      "l1Fee": "0x51",
      "l1GasPrice": "0x9",
      "l1GasUsed": "0x640"
    },
    {
      "status": "0x1",
      "cumulativeGasUsed": "0x47ceee",
      "logs": [
        {
          "address": "0xb94010ade8e47898e2eab0fc2036ff5998a94604",
          "topics": [
            "0xddf252ad1be2c89b69c2b068fc378daa952ba7f163c4a11628f55a4df523b3ef",
            "0x000000000000000000000000ef601a05d21d68384b127585ac886effc993894a",
            "0x0000000000000000000000003997ed9d4cbf7d7d76419cc27a487a2c1de36386"
          ],
          "data": "0x0000000000000000000000000000000000000000000000000000000005f5e100",
          "blockHash": "0x1f13770ce1766d9d23258f85e7aaa31d17740fc0b181c56c59248bda49554dcf",
          "blockNumber": "0x207771e",
          "blockTimestamp": "0x69224d1c",
          "transactionHash": "0x3c6ed0d5b5f612f8462bcfdb3477ad85506759aa6ebf368232852cd4427fd442",
          "transactionIndex": "0xa",
          "logIndex": "0x7f",
          "removed": false
        },
        {
          "address": "0x3997ed9d4cbf7d7d76419cc27a487a2c1de36386",
          "topics": [
            "0xe82f9de5acaa8d9b3291f9b8d118b433976f5cbbc63620e25b56181c5ad4ed67"
          ],
          "data": "0x0000000000000000000000000000000000000000000000000000000000000040501cc816f46776a08a5b60590561c6d3e080664691d3960778d8e1d307f2e64700000000000000000000000000000000000000000000000000000000000000800000000000000000000000000000000000000000000000000000000005f5e100000000000000000000000000ef601a05d21d68384b127585ac886effc993894aa10f821b7160c9710708884d5314c507d4fd0baeadf39a60a6a0e73629acf8e3000000000000000000000000000000000000000000000000000000000000004268747470733a2f2f646174612d6170692e62696e616e63652e766973696f6e2f6170692f76332f7469636b65722f70726963653f73796d626f6c3d45544855534443000000000000000000000000000000000000000000000000000000000000",
          "blockHash": "0x1f13770ce1766d9d23258f85e7aaa31d17740fc0b181c56c59248bda49554dcf",
          "blockNumber": "0x207771e",
          "blockTimestamp": "0x69224d1c",
          "transactionHash": "0x3c6ed0d5b5f612f8462bcfdb3477ad85506759aa6ebf368232852cd4427fd442",
          "transactionIndex": "0xa",
          "logIndex": "0x80",
          "removed": false
        }
      ],
      "logsBloom": "0x00000000000000000000000000000001000000000000100000000000000000000000000000000000000000000000000000000000000000000000000000000000000000000000002000000018000000000000000000000000000000002000000000000800000000000080000000000000800000000000000000000010000000000001000000000000000000000000000000000000000000000000000000000000000000000000000000000000010000000000000000000000002000000000000000000002000100000000000000000000000000000000000000000000000010000000000000000000000000200000000000000000000000000000000000004000",
      "type": "0x2",
      "transactionHash": "0x3c6ed0d5b5f612f8462bcfdb3477ad85506759aa6ebf368232852cd4427fd442",
      "transactionIndex": "0xa",
      "blockHash": "0x1f13770ce1766d9d23258f85e7aaa31d17740fc0b181c56c59248bda49554dcf",
      "blockNumber": "0x207771e",
      "gasUsed": "0x13853",
      "effectiveGasPrice": "0x133108",
      "blobGasUsed": "0xeb38",
      "from": "0xef601a05d21d68384b127585ac886effc993894a",
      "to": "0x3997ed9d4cbf7d7d76419cc27a487a2c1de36386",
      "contractAddress": null,
      "daFootprintGasScalar": "0x138",
      "l1BaseFeeScalar": "0x44d",
      "l1BlobBaseFee": "0x1",
      "l1BlobBaseFeeScalar": "0xa118b",
      "l1Fee": "0x51",
      "l1GasPrice": "0x9",
      "l1GasUsed": "0xc14"
    }
  ],
  "libraries": [],
  "pending": [],
  "returns": {},
  "timestamp": 1763855642,
  "chain": 84532,
  "commit": "dde5bee"
}