{
  "transactions": [
    {
      "hash": "0xa7e4d41925d0c17f0eb86774b0404a11c9150889ada89f91e98e013824a23f92",
      "transactionType": "CALL",
      "contractName": "MockUSDC",
      "contractAddress": "0x57d21b59d2dd2b45fe101c15d342c8d43f521388",
      "function": "mint(address,uint256)",
      "arguments": [
        "0xEF601A05D21D68384B127585ac886EFFC993894a",
        "110000000"
      ],
      "transaction": {
        "from": "0xef601a05d21d68384b127585ac886effc993894a",
        "to": "0x57d21b59d2dd2b45fe101c15d342c8d43f521388",
        "gas": "0x184e4",
        "value": "0x0",
        "input": "0x40c10f19000000000000000000000000ef601a05d21d68384b127585ac886effc993894a00000000000000000000000000000000000000000000000000000000068e7780",
        "nonce": "0x82",
        "chainId": "0x14a34"
      },
      "additionalContracts": [],
      "isFixedGasLimit": false
    },
    {
      "hash": "0xe8f93adf9b7cf3ef3d8a90467d8e675afef8a4b368fe16bb8ee6d235468f1d59",
      "transactionType": "CALL",
      "contractName": "MockUSDC",
      "contractAddress": "0x57d21b59d2dd2b45fe101c15d342c8d43f521388",
      "function": "approve(address,uint256)",
      "arguments": [
        "0xBe7f387bA8246ff2C00cE5bf4A3CCCD7A4b04044",
        "100000000"
      ],
      "transaction": {
        "from": "0xef601a05d21d68384b127585ac886effc993894a",
        "to": "0x57d21b59d2dd2b45fe101c15d342c8d43f521388",
        "gas": "0x10657",
        "value": "0x0",
        "input": "0x095ea7b3000000000000000000000000be7f387ba8246ff2c00ce5bf4a3cccd7a4b040440000000000000000000000000000000000000000000000000000000005f5e100",
        "nonce": "0x83",
        "chainId": "0x14a34"
      },
      "additionalContracts": [],
      "isFixedGasLimit": false
    },
    {
      "hash": "0xf5056cee71520cb0a2b1c18003986f3082c9e62cbcb28f88873b23c68532df03",
      "transactionType": "CALL",
      "contractName": null,
      "contractAddress": "0xbe7f387ba8246ff2c00ce5bf4a3cccd7a4b04044",
      "function": "list((string,string,uint256,address,bytes32))",
      "arguments": [
        "(https://data-api.binance.vision/api/v3/ticker/price?symbol=ETHUSDC, 15334575571313, 100000000, 0xEF601A05D21D68384B127585ac886EFFC993894a, 0xa10f821b7160c9710708884d5314c507d4fd0baeadf39a60a6a0e73629acf8e3)"
      ],
      "transaction": {
        "from": "0xef601a05d21d68384b127585ac886effc993894a",
        "to": "0xbe7f387ba8246ff2c00ce5bf4a3cccd7a4b04044",
        "gas": "0x63859",
        "value": "0x0",
        "input": "0x9d0d71ca000000000000000000000000000000000000000000000000000000000000002000000000000000000000000000000000000000000000000000000000000000a000000000000000000000000000000000000000000000000000000000000001200000000000000000000000000000000000000000000000000000000005f5e100000000000000000000000000ef601a05d21d68384b127585ac886effc993894aa10f821b7160c9710708884d5314c507d4fd0baeadf39a60a6a0e73629acf8e3000000000000000000000000000000000000000000000000000000000000004268747470733a2f2f646174612d6170692e62696e616e63652e766973696f6e2f6170692f76332f7469636b65722f70726963653f73796d626f6c3d45544855534443000000000000000000000000000000000000000000000000000000000000000000000000000000000000000000000000000000000000000000000000000e3135333334353735353731333133000000000000000000000000000000000000",
        "nonce": "0x84",
        "chainId": "0x14a34"
      },
      "additionalContracts": [],
      "isFixedGasLimit": false
    }
  ],
  "receipts": [
    {
      "status": "0x1",
      "cumulativeGasUsed": "0x9cab6",
      "logs": [
        {
          "address": "0x57d21b59d2dd2b45fe101c15d342c8d43f521388",
          "topics": [
            "0xddf252ad1be2c89b69c2b068fc378daa952ba7f163c4a11628f55a4df523b3ef",
            "0x0000000000000000000000000000000000000000000000000000000000000000",
            "0x000000000000000000000000ef601a05d21d68384b127585ac886effc993894a"
          ],
          "data": "0x00000000000000000000000000000000000000000000000000000000068e7780",
          "blockHash": "0xc6f79be3df6190cfb7b0faa8c742b0139afeb1585e8fe1635b31418b9a3b3bae",
          "blockNumber": "0x207832b",
          "blockTimestamp": "0x69226536",
          "transactionHash": "0xa7e4d41925d0c17f0eb86774b0404a11c9150889ada89f91e98e013824a23f92",
          "transactionIndex": "0x3",
          "logIndex": "0x2",
          "removed": false
        }
      ],
      "logsBloom": "0x00000000000000000000000000000000000000000000100000000000000000000000000000080000000000000000000000000000000000000000000000000000000000000000000000000008000000000000000000000000000000002000000000000000020000000000000000000800000000000000000000000010000000000001000000000000000000000000000000000000000000000000000000000000000000000000001000000000000000000000000000000000000000000000000000000002000000000000000000000000000000000000000000000000000020000000000000000000000000000000000000000000000000000000000040000000",
      "type": "0x2",
      "transactionHash": "0xa7e4d41925d0c17f0eb86774b0404a11c9150889ada89f91e98e013824a23f92",
      "transactionIndex": "0x3",
      "blockHash": "0xc6f79be3df6190cfb7b0faa8c742b0139afeb1585e8fe1635b31418b9a3b3bae",
      "blockNumber": "0x207832b",
      "gasUsed": "0x109e9",
      "effectiveGasPrice": "0x3767e1",
      "blobGasUsed": "0x79e0",
      "from": "0xef601a05d21d68384b127585ac886effc993894a",
      "to": "0x57d21b59d2dd2b45fe101c15d342c8d43f521388",
      "contractAddress": null,
      "daFootprintGasScalar": "0x138",
      "l1BaseFeeScalar": "0x44d",
      "l1BlobBaseFee": "0x1",
      "l1BlobBaseFeeScalar": "0xa118b",
      "l1Fee": "0x5e",
      "l1GasPrice": "0x10",
      "l1GasUsed": "0x640"
    },
    {
      "status": "0x1",
      "cumulativeGasUsed": "0xa7e17",
      "logs": [
        {
          "address": "0x57d21b59d2dd2b45fe101c15d342c8d43f521388",
          "topics": [
            "0x8c5be1e5ebec7d5bd14f71427d1e84f3dd0314c0f7b2291e5b200ac8c7c3b925",
            "0x000000000000000000000000ef601a05d21d68384b127585ac886effc993894a",
            "0x000000000000000000000000be7f387ba8246ff2c00ce5bf4a3cccd7a4b04044"
          ],
          "data": "0x0000000000000000000000000000000000000000000000000000000005f5e100",
          "blockHash": "0xc6f79be3df6190cfb7b0faa8c742b0139afeb1585e8fe1635b31418b9a3b3bae",
          "blockNumber": "0x207832b",
          "blockTimestamp": "0x69226536",
          "transactionHash": "0xe8f93adf9b7cf3ef3d8a90467d8e675afef8a4b368fe16bb8ee6d235468f1d59",
          "transactionIndex": "0x4",
          "logIndex": "0x3",
          "removed": false
        }
      ],
      "logsBloom": "0x00000000000000000000000000000000000000000000100000000000000000000000000000080000000000000000000000000000000000000000000001200000000000000000000000000000000000000000000000000000000000002000000000000000000000000000000000000000000000000000000000000000000000000001000000000000000000000000000000000000000000000000000000000000020000000000001000000000000000000000000000000000000000000000080000000000000000000000000000000000000000000000000000000000000000000010000000000000020000000000000000000000000000000000000040000000",
      "type": "0x2",
      "transactionHash": "0xe8f93adf9b7cf3ef3d8a90467d8e675afef8a4b368fe16bb8ee6d235468f1d59",
      "transactionIndex": "0x4",
      "blockHash": "0xc6f79be3df6190cfb7b0faa8c742b0139afeb1585e8fe1635b31418b9a3b3bae",
      "blockNumber": "0x207832b",
      "gasUsed": "0xb361",
      "effectiveGasPrice": "0x3767e1",
      "blobGasUsed": "0x79e0",
      "from": "0xef601a05d21d68384b127585ac886effc993894a",
      "to": "0x57d21b59d2dd2b45fe101c15d342c8d43f521388",
      "contractAddress": null,
      "daFootprintGasScalar": "0x138",
      "l1BaseFeeScalar": "0x44d",
      "l1BlobBaseFee": "0x1",
      "l1BlobBaseFeeScalar": "0xa118b",
      "l1Fee": "0x5e",
      "l1GasPrice": "0x10",
      "l1GasUsed": "0x640"
    },
    {
      "status": "0x1",
      "cumulativeGasUsed": "0xefeec",
      "logs": [
        {
          "address": "0x57d21b59d2dd2b45fe101c15d342c8d43f521388",
          "topics": [
            "0xddf252ad1be2c89b69c2b068fc378daa952ba7f163c4a11628f55a4df523b3ef",
            "0x000000000000000000000000ef601a05d21d68384b127585ac886effc993894a",
            "0x000000000000000000000000be7f387ba8246ff2c00ce5bf4a3cccd7a4b04044"
          ],
          "data": "0x0000000000000000000000000000000000000000000000000000000005f5e100",
          "blockHash": "0xc6f79be3df6190cfb7b0faa8c742b0139afeb1585e8fe1635b31418b9a3b3bae",
          "blockNumber": "0x207832b",
          "blockTimestamp": "0x69226536",
          "transactionHash": "0xf5056cee71520cb0a2b1c18003986f3082c9e62cbcb28f88873b23c68532df03",
          "transactionIndex": "0x5",
          "logIndex": "0x4",
          "removed": false
        },
        {
          "address": "0xbe7f387ba8246ff2c00ce5bf4a3cccd7a4b04044",
          "topics": [
            "0xe1e8e5f42b49a5c22e59b67a128a192afb3ff14a69c0770380c5cbb8a64b9eb6"
          ],
          "data": "0x0000000000000000000000000000000000000000000000000000000000000040184a49dc506067e52dc75859cb8aee08131e6442dc0718efe84332d6d75af19700000000000000000000000000000000000000000000000000000000000000a000000000000000000000000000000000000000000000000000000000000001200000000000000000000000000000000000000000000000000000000005f5e100000000000000000000000000ef601a05d21d68384b127585ac886effc993894aa10f821b7160c9710708884d5314c507d4fd0baeadf39a60a6a0e73629acf8e3000000000000000000000000000000000000000000000000000000000000004268747470733a2f2f646174612d6170692e62696e616e63652e766973696f6e2f6170692f76332f7469636b65722f70726963653f73796d626f6c3d45544855534443000000000000000000000000000000000000000000000000000000000000000000000000000000000000000000000000000000000000000000000000000e3135333334353735353731333133000000000000000000000000000000000000",
          "blockHash": "0xc6f79be3df6190cfb7b0faa8c742b0139afeb1585e8fe1635b31418b9a3b3bae",
          "blockNumber": "0x207832b",
          "blockTimestamp": "0x69226536",
          "transactionHash": "0xf5056cee71520cb0a2b1c18003986f3082c9e62cbcb28f88873b23c68532df03",
          "transactionIndex": "0x5",
          "logIndex": "0x5",
          "removed": false
        }
      ],
      "logsBloom": "0x00000000000000000000000000000000000000000000100000000000000000000000000000080000000000000000000000000000000000000002000001000000000000000000000000008008000000000000000000000000000000002000000000000000000000000000000000000000000000000000000000000010000000000001000800400000000000000000000000000000000000800000000000000000000000000000001000000000000000000001000000000000000000000000080000000002000000000000000000000000000000000000000000000000000000000000000000000000020000000000000000000000000000000000000040000000",
      "type": "0x2",
      "transactionHash": "0xf5056cee71520cb0a2b1c18003986f3082c9e62cbcb28f88873b23c68532df03",
      "transactionIndex": "0x5",
      "blockHash": "0xc6f79be3df6190cfb7b0faa8c742b0139afeb1585e8fe1635b31418b9a3b3bae",
      "blockNumber": "0x207832b",
      "gasUsed": "0x480d5",
      "effectiveGasPrice": "0x3767e1",
      "blobGasUsed": "0x104d0",
      "from": "0xef601a05d21d68384b127585ac886effc993894a",
      "to": "0xbe7f387ba8246ff2c00ce5bf4a3cccd7a4b04044",
      "contractAddress": null,
      "daFootprintGasScalar": "0x138",
      "l1BaseFeeScalar": "0x44d",
      "l1BlobBaseFee": "0x1",
      "l1BlobBaseFeeScalar": "0xa118b",
      "l1Fee": "0x5e",
      "l1GasPrice": "0x10",
      "l1GasUsed": "0xd63"
    }
  ],
  "libraries": [],
  "pending": [],
  "returns": {},
  "timestamp": 1763861812,
  "chain": 84532,
  "commit": "e78010d"
}